{
  "_format": "hh-sol-artifact-1",
  "contractName": "Nfticket",
  "sourceName": "contracts/sample_nft_ticket.sol",
  "abi": [
    {
      "inputs": [
        {
          "internalType": "address",
          "name": "initialOwner",
          "type": "address"
        }
      ],
      "stateMutability": "nonpayable",
      "type": "constructor"
    },
    {
      "inputs": [],
      "name": "ERC721EnumerableForbiddenBatchMint",
      "type": "error"
    },
    {
      "inputs": [
        {
          "internalType": "address",
          "name": "sender",
          "type": "address"
        },
        {
          "internalType": "uint256",
          "name": "tokenId",
          "type": "uint256"
        },
        {
          "internalType": "address",
          "name": "owner",
          "type": "address"
        }
      ],
      "name": "ERC721IncorrectOwner",
      "type": "error"
    },
    {
      "inputs": [
        {
          "internalType": "address",
          "name": "operator",
          "type": "address"
        },
        {
          "internalType": "uint256",
          "name": "tokenId",
          "type": "uint256"
        }
      ],
      "name": "ERC721InsufficientApproval",
      "type": "error"
    },
    {
      "inputs": [
        {
          "internalType": "address",
          "name": "approver",
          "type": "address"
        }
      ],
      "name": "ERC721InvalidApprover",
      "type": "error"
    },
    {
      "inputs": [
        {
          "internalType": "address",
          "name": "operator",
          "type": "address"
        }
      ],
      "name": "ERC721InvalidOperator",
      "type": "error"
    },
    {
      "inputs": [
        {
          "internalType": "address",
          "name": "owner",
          "type": "address"
        }
      ],
      "name": "ERC721InvalidOwner",
      "type": "error"
    },
    {
      "inputs": [
        {
          "internalType": "address",
          "name": "receiver",
          "type": "address"
        }
      ],
      "name": "ERC721InvalidReceiver",
      "type": "error"
    },
    {
      "inputs": [
        {
          "internalType": "address",
          "name": "sender",
          "type": "address"
        }
      ],
      "name": "ERC721InvalidSender",
      "type": "error"
    },
    {
      "inputs": [
        {
          "internalType": "uint256",
          "name": "tokenId",
          "type": "uint256"
        }
      ],
      "name": "ERC721NonexistentToken",
      "type": "error"
    },
    {
      "inputs": [
        {
          "internalType": "address",
          "name": "owner",
          "type": "address"
        },
        {
          "internalType": "uint256",
          "name": "index",
          "type": "uint256"
        }
      ],
      "name": "ERC721OutOfBoundsIndex",
      "type": "error"
    },
    {
      "inputs": [
        {
          "internalType": "address",
          "name": "owner",
          "type": "address"
        }
      ],
      "name": "OwnableInvalidOwner",
      "type": "error"
    },
    {
      "inputs": [
        {
          "internalType": "address",
          "name": "account",
          "type": "address"
        }
      ],
      "name": "OwnableUnauthorizedAccount",
      "type": "error"
    },
    {
      "anonymous": false,
      "inputs": [
        {
          "indexed": true,
          "internalType": "address",
          "name": "owner",
          "type": "address"
        },
        {
          "indexed": true,
          "internalType": "address",
          "name": "approved",
          "type": "address"
        },
        {
          "indexed": true,
          "internalType": "uint256",
          "name": "tokenId",
          "type": "uint256"
        }
      ],
      "name": "Approval",
      "type": "event"
    },
    {
      "anonymous": false,
      "inputs": [
        {
          "indexed": true,
          "internalType": "address",
          "name": "owner",
          "type": "address"
        },
        {
          "indexed": true,
          "internalType": "address",
          "name": "operator",
          "type": "address"
        },
        {
          "indexed": false,
          "internalType": "bool",
          "name": "approved",
          "type": "bool"
        }
      ],
      "name": "ApprovalForAll",
      "type": "event"
    },
    {
      "anonymous": false,
      "inputs": [
        {
          "indexed": false,
          "internalType": "uint256",
          "name": "_fromTokenId",
          "type": "uint256"
        },
        {
          "indexed": false,
          "internalType": "uint256",
          "name": "_toTokenId",
          "type": "uint256"
        }
      ],
      "name": "BatchMetadataUpdate",
      "type": "event"
    },
    {
      "anonymous": false,
      "inputs": [
        {
          "indexed": false,
          "internalType": "uint256",
          "name": "_tokenId",
          "type": "uint256"
        }
      ],
      "name": "MetadataUpdate",
      "type": "event"
    },
    {
      "anonymous": false,
      "inputs": [
        {
          "indexed": true,
          "internalType": "address",
          "name": "previousOwner",
          "type": "address"
        },
        {
          "indexed": true,
          "internalType": "address",
          "name": "newOwner",
          "type": "address"
        }
      ],
      "name": "OwnershipTransferred",
      "type": "event"
    },
    {
      "anonymous": false,
      "inputs": [
        {
          "indexed": true,
          "internalType": "address",
          "name": "from",
          "type": "address"
        },
        {
          "indexed": true,
          "internalType": "address",
          "name": "to",
          "type": "address"
        },
        {
          "indexed": true,
          "internalType": "uint256",
          "name": "tokenId",
          "type": "uint256"
        }
      ],
      "name": "Transfer",
      "type": "event"
    },
    {
      "inputs": [],
      "name": "MAX_SUPPLY",
      "outputs": [
        {
          "internalType": "uint256",
          "name": "",
          "type": "uint256"
        }
      ],
      "stateMutability": "view",
      "type": "function"
    },
    {
      "inputs": [
        {
          "internalType": "address",
          "name": "to",
          "type": "address"
        },
        {
          "internalType": "uint256",
          "name": "tokenId",
          "type": "uint256"
        }
      ],
      "name": "approve",
      "outputs": [],
      "stateMutability": "nonpayable",
      "type": "function"
    },
    {
      "inputs": [
        {
          "internalType": "address",
          "name": "owner",
          "type": "address"
        }
      ],
      "name": "balanceOf",
      "outputs": [
        {
          "internalType": "uint256",
          "name": "",
          "type": "uint256"
        }
      ],
      "stateMutability": "view",
      "type": "function"
    },
    {
      "inputs": [
        {
          "internalType": "uint256",
          "name": "tokenId",
          "type": "uint256"
        }
      ],
      "name": "getApproved",
      "outputs": [
        {
          "internalType": "address",
          "name": "",
          "type": "address"
        }
      ],
      "stateMutability": "view",
      "type": "function"
    },
    {
      "inputs": [
        {
          "internalType": "address",
          "name": "owner",
          "type": "address"
        },
        {
          "internalType": "address",
          "name": "operator",
          "type": "address"
        }
      ],
      "name": "isApprovedForAll",
      "outputs": [
        {
          "internalType": "bool",
          "name": "",
          "type": "bool"
        }
      ],
      "stateMutability": "view",
      "type": "function"
    },
    {
      "inputs": [],
      "name": "isMintEnabled",
      "outputs": [
        {
          "internalType": "bool",
          "name": "",
          "type": "bool"
        }
      ],
      "stateMutability": "view",
      "type": "function"
    },
    {
      "inputs": [],
      "name": "mintPrice",
      "outputs": [
        {
          "internalType": "uint256",
          "name": "",
          "type": "uint256"
        }
      ],
      "stateMutability": "view",
      "type": "function"
    },
    {
      "inputs": [
        {
          "internalType": "address",
          "name": "",
          "type": "address"
        }
      ],
      "name": "mintedWallets",
      "outputs": [
        {
          "internalType": "uint256",
          "name": "",
          "type": "uint256"
        }
      ],
      "stateMutability": "view",
      "type": "function"
    },
    {
      "inputs": [],
      "name": "name",
      "outputs": [
        {
          "internalType": "string",
          "name": "",
          "type": "string"
        }
      ],
      "stateMutability": "view",
      "type": "function"
    },
    {
      "inputs": [],
      "name": "owner",
      "outputs": [
        {
          "internalType": "address",
          "name": "",
          "type": "address"
        }
      ],
      "stateMutability": "view",
      "type": "function"
    },
    {
      "inputs": [
        {
          "internalType": "uint256",
          "name": "tokenId",
          "type": "uint256"
        }
      ],
      "name": "ownerOf",
      "outputs": [
        {
          "internalType": "address",
          "name": "",
          "type": "address"
        }
      ],
      "stateMutability": "view",
      "type": "function"
    },
    {
      "inputs": [],
      "name": "renounceOwnership",
      "outputs": [],
      "stateMutability": "nonpayable",
      "type": "function"
    },
    {
      "inputs": [
        {
          "internalType": "address",
          "name": "to",
          "type": "address"
        },
        {
          "internalType": "string",
          "name": "uri",
          "type": "string"
        }
      ],
      "name": "safeMint",
      "outputs": [],
      "stateMutability": "payable",
      "type": "function"
    },
    {
      "inputs": [
        {
          "internalType": "address",
          "name": "from",
          "type": "address"
        },
        {
          "internalType": "address",
          "name": "to",
          "type": "address"
        },
        {
          "internalType": "uint256",
          "name": "tokenId",
          "type": "uint256"
        }
      ],
      "name": "safeTransferFrom",
      "outputs": [],
      "stateMutability": "nonpayable",
      "type": "function"
    },
    {
      "inputs": [
        {
          "internalType": "address",
          "name": "from",
          "type": "address"
        },
        {
          "internalType": "address",
          "name": "to",
          "type": "address"
        },
        {
          "internalType": "uint256",
          "name": "tokenId",
          "type": "uint256"
        },
        {
          "internalType": "bytes",
          "name": "data",
          "type": "bytes"
        }
      ],
      "name": "safeTransferFrom",
      "outputs": [],
      "stateMutability": "nonpayable",
      "type": "function"
    },
    {
      "inputs": [
        {
          "internalType": "address",
          "name": "operator",
          "type": "address"
        },
        {
          "internalType": "bool",
          "name": "approved",
          "type": "bool"
        }
      ],
      "name": "setApprovalForAll",
      "outputs": [],
      "stateMutability": "nonpayable",
      "type": "function"
    },
    {
      "inputs": [
        {
          "internalType": "uint256",
          "name": "max_supply",
          "type": "uint256"
        }
      ],
      "name": "setMaxSupply",
      "outputs": [],
      "stateMutability": "nonpayable",
      "type": "function"
    },
    {
      "inputs": [
        {
          "internalType": "uint256",
          "name": "mint_price",
          "type": "uint256"
        }
      ],
      "name": "setmintPrice",
      "outputs": [],
      "stateMutability": "nonpayable",
      "type": "function"
    },
    {
      "inputs": [
        {
          "internalType": "bytes4",
          "name": "interfaceId",
          "type": "bytes4"
        }
      ],
      "name": "supportsInterface",
      "outputs": [
        {
          "internalType": "bool",
          "name": "",
          "type": "bool"
        }
      ],
      "stateMutability": "view",
      "type": "function"
    },
    {
      "inputs": [],
      "name": "symbol",
      "outputs": [
        {
          "internalType": "string",
          "name": "",
          "type": "string"
        }
      ],
      "stateMutability": "view",
      "type": "function"
    },
    {
      "inputs": [],
      "name": "toggleMintEnabled",
      "outputs": [],
      "stateMutability": "nonpayable",
      "type": "function"
    },
    {
      "inputs": [
        {
          "internalType": "uint256",
          "name": "index",
          "type": "uint256"
        }
      ],
      "name": "tokenByIndex",
      "outputs": [
        {
          "internalType": "uint256",
          "name": "",
          "type": "uint256"
        }
      ],
      "stateMutability": "view",
      "type": "function"
    },
    {
      "inputs": [
        {
          "internalType": "address",
          "name": "owner",
          "type": "address"
        },
        {
          "internalType": "uint256",
          "name": "index",
          "type": "uint256"
        }
      ],
      "name": "tokenOfOwnerByIndex",
      "outputs": [
        {
          "internalType": "uint256",
          "name": "",
          "type": "uint256"
        }
      ],
      "stateMutability": "view",
      "type": "function"
    },
    {
      "inputs": [
        {
          "internalType": "uint256",
          "name": "tokenId",
          "type": "uint256"
        }
      ],
      "name": "tokenURI",
      "outputs": [
        {
          "internalType": "string",
          "name": "",
          "type": "string"
        }
      ],
      "stateMutability": "view",
      "type": "function"
    },
    {
      "inputs": [],
      "name": "totalSupply",
      "outputs": [
        {
          "internalType": "uint256",
          "name": "",
          "type": "uint256"
        }
      ],
      "stateMutability": "view",
      "type": "function"
    },
    {
      "inputs": [
        {
          "internalType": "address",
          "name": "from",
          "type": "address"
        },
        {
          "internalType": "address",
          "name": "to",
          "type": "address"
        },
        {
          "internalType": "uint256",
          "name": "tokenId",
          "type": "uint256"
        }
      ],
      "name": "transferFrom",
      "outputs": [],
      "stateMutability": "nonpayable",
      "type": "function"
    },
    {
      "inputs": [
        {
          "internalType": "address",
          "name": "newOwner",
          "type": "address"
        }
      ],
      "name": "transferOwnership",
      "outputs": [],
      "stateMutability": "nonpayable",
      "type": "function"
    },
    {
      "inputs": [
        {
          "internalType": "address payable",
          "name": "from",
          "type": "address"
        },
        {
          "internalType": "uint256",
          "name": "tokenId",
          "type": "uint256"
        }
      ],
      "name": "transferToken",
      "outputs": [],
      "stateMutability": "payable",
      "type": "function"
    }
  ],
  "bytecode": "0x60806040526000600c556000600e553480156200001b57600080fd5b5060405162003d3438038062003d34833981810160405281019062000041919062000292565b806040518060400160405280600881526020017f6e667469636b65740000000000000000000000000000000000000000000000008152506040518060400160405280600381526020017f4e544b00000000000000000000000000000000000000000000000000000000008152508160009081620000bf91906200053e565b508060019081620000d191906200053e565b505050600073ffffffffffffffffffffffffffffffffffffffff168173ffffffffffffffffffffffffffffffffffffffff1603620001495760006040517f1e4fbdf700000000000000000000000000000000000000000000000000000000815260040162000140919062000636565b60405180910390fd5b6200015a816200016260201b60201c565b505062000653565b6000600b60009054906101000a900473ffffffffffffffffffffffffffffffffffffffff16905081600b60006101000a81548173ffffffffffffffffffffffffffffffffffffffff021916908373ffffffffffffffffffffffffffffffffffffffff1602179055508173ffffffffffffffffffffffffffffffffffffffff168173ffffffffffffffffffffffffffffffffffffffff167f8be0079c531659141344cd1fd0a4f28419497f9722a3daafe3b4186f6b6457e060405160405180910390a35050565b600080fd5b600073ffffffffffffffffffffffffffffffffffffffff82169050919050565b60006200025a826200022d565b9050919050565b6200026c816200024d565b81146200027857600080fd5b50565b6000815190506200028c8162000261565b92915050565b600060208284031215620002ab57620002aa62000228565b5b6000620002bb848285016200027b565b91505092915050565b600081519050919050565b7f4e487b7100000000000000000000000000000000000000000000000000000000600052604160045260246000fd5b7f4e487b7100000000000000000000000000000000000000000000000000000000600052602260045260246000fd5b600060028204905060018216806200034657607f821691505b6020821081036200035c576200035b620002fe565b5b50919050565b60008190508160005260206000209050919050565b60006020601f8301049050919050565b600082821b905092915050565b600060088302620003c67fffffffffffffffffffffffffffffffffffffffffffffffffffffffffffffffff8262000387565b620003d2868362000387565b95508019841693508086168417925050509392505050565b6000819050919050565b6000819050919050565b60006200041f620004196200041384620003ea565b620003f4565b620003ea565b9050919050565b6000819050919050565b6200043b83620003fe565b620004536200044a8262000426565b84845462000394565b825550505050565b600090565b6200046a6200045b565b6200047781848462000430565b505050565b5b818110156200049f576200049360008262000460565b6001810190506200047d565b5050565b601f821115620004ee57620004b88162000362565b620004c38462000377565b81016020851015620004d3578190505b620004eb620004e28562000377565b8301826200047c565b50505b505050565b600082821c905092915050565b60006200051360001984600802620004f3565b1980831691505092915050565b60006200052e838362000500565b9150826002028217905092915050565b6200054982620002c4565b67ffffffffffffffff811115620005655762000564620002cf565b5b6200057182546200032d565b6200057e828285620004a3565b600060209050601f831160018114620005b65760008415620005a1578287015190505b620005ad858262000520565b8655506200061d565b601f198416620005c68662000362565b60005b82811015620005f057848901518255600182019150602085019450602081019050620005c9565b868310156200061057848901516200060c601f89168262000500565b8355505b6001600288020188555050505b505050505050565b62000630816200024d565b82525050565b60006020820190506200064d600083018462000625565b92915050565b6136d180620006636000396000f3fe6080604052600436106101b75760003560e01c80636817c76c116100ec578063ada7c4ed1161008a578063c87b56dd11610064578063c87b56dd146105fd578063d204c45e1461063a578063e985e9c514610656578063f2fde38b14610693576101b7565b8063ada7c4ed1461056e578063b488cf18146105ab578063b88d4fde146105d4576101b7565b8063715018a6116100c6578063715018a6146104d85780638da5cb5b146104ef57806395d89b411461051a578063a22cb46514610545576101b7565b80636817c76c146104475780636f8b44b01461047257806370a082311461049b576101b7565b80632f745c591161015957806342842e0e1161013357806342842e0e1461038d5780634f6ccce7146103b657806361f5baeb146103f35780636352211e1461040a576101b7565b80632f745c59146102fa57806332cb6b0c14610337578063346de50a14610362576101b7565b8063095ea7b311610195578063095ea7b3146102615780631072cbea1461028a57806318160ddd146102a657806323b872dd146102d1576101b7565b806301ffc9a7146101bc57806306fdde03146101f9578063081812fc14610224575b600080fd5b3480156101c857600080fd5b506101e360048036038101906101de9190612843565b6106bc565b6040516101f0919061288b565b60405180910390f35b34801561020557600080fd5b5061020e6106ce565b60405161021b9190612936565b60405180910390f35b34801561023057600080fd5b5061024b6004803603810190610246919061298e565b610760565b60405161025891906129fc565b60405180910390f35b34801561026d57600080fd5b5061028860048036038101906102839190612a43565b61077c565b005b6102a4600480360381019061029f9190612ac1565b610792565b005b3480156102b257600080fd5b506102bb61082c565b6040516102c89190612b10565b60405180910390f35b3480156102dd57600080fd5b506102f860048036038101906102f39190612b2b565b610839565b005b34801561030657600080fd5b50610321600480360381019061031c9190612a43565b61093b565b60405161032e9190612b10565b60405180910390f35b34801561034357600080fd5b5061034c6109e4565b6040516103599190612b10565b60405180910390f35b34801561036e57600080fd5b506103776109ea565b604051610384919061288b565b60405180910390f35b34801561039957600080fd5b506103b460048036038101906103af9190612b2b565b6109fd565b005b3480156103c257600080fd5b506103dd60048036038101906103d8919061298e565b610a1d565b6040516103ea9190612b10565b60405180910390f35b3480156103ff57600080fd5b50610408610a93565b005b34801561041657600080fd5b50610431600480360381019061042c919061298e565b610ac7565b60405161043e91906129fc565b60405180910390f35b34801561045357600080fd5b5061045c610ad9565b6040516104699190612b10565b60405180910390f35b34801561047e57600080fd5b506104996004803603810190610494919061298e565b610adf565b005b3480156104a757600080fd5b506104c260048036038101906104bd9190612b7e565b610af1565b6040516104cf9190612b10565b60405180910390f35b3480156104e457600080fd5b506104ed610bab565b005b3480156104fb57600080fd5b50610504610bbf565b60405161051191906129fc565b60405180910390f35b34801561052657600080fd5b5061052f610be9565b60405161053c9190612936565b60405180910390f35b34801561055157600080fd5b5061056c60048036038101906105679190612bd7565b610c7b565b005b34801561057a57600080fd5b5061059560048036038101906105909190612b7e565b610c91565b6040516105a29190612b10565b60405180910390f35b3480156105b757600080fd5b506105d260048036038101906105cd919061298e565b610ca9565b005b3480156105e057600080fd5b506105fb60048036038101906105f69190612d4c565b610cbb565b005b34801561060957600080fd5b50610624600480360381019061061f919061298e565b610cd8565b6040516106319190612936565b60405180910390f35b610654600480360381019061064f9190612e70565b610cea565b005b34801561066257600080fd5b5061067d60048036038101906106789190612ecc565b610e7d565b60405161068a919061288b565b60405180910390f35b34801561069f57600080fd5b506106ba60048036038101906106b59190612b7e565b610f11565b005b60006106c782610f97565b9050919050565b6060600080546106dd90612f3b565b80601f016020809104026020016040519081016040528092919081815260200182805461070990612f3b565b80156107565780601f1061072b57610100808354040283529160200191610756565b820191906000526020600020905b81548152906001019060200180831161073957829003601f168201915b5050505050905090565b600061076b82610ff8565b5061077582611080565b9050919050565b61078e82826107896110bd565b6110c5565b5050565b600c5434146107d6576040517f08c379a00000000000000000000000000000000000000000000000000000000081526004016107cd90612fb8565b60405180910390fd5b8173ffffffffffffffffffffffffffffffffffffffff166108fc349081150290604051600060405180830381858888f1935050505015801561081c573d6000803e3d6000fd5b506108288233836110d7565b5050565b6000600880549050905090565b600073ffffffffffffffffffffffffffffffffffffffff168273ffffffffffffffffffffffffffffffffffffffff16036108ab5760006040517f64a0ae920000000000000000000000000000000000000000000000000000000081526004016108a291906129fc565b60405180910390fd5b60006108bf83836108ba6110bd565b6110f7565b90508373ffffffffffffffffffffffffffffffffffffffff168173ffffffffffffffffffffffffffffffffffffffff1614610935578382826040517f64283d7b00000000000000000000000000000000000000000000000000000000815260040161092c93929190612fd8565b60405180910390fd5b50505050565b600061094683610af1565b821061098b5782826040517fa57d13dc00000000000000000000000000000000000000000000000000000000815260040161098292919061300f565b60405180910390fd5b600660008473ffffffffffffffffffffffffffffffffffffffff1673ffffffffffffffffffffffffffffffffffffffff168152602001908152602001600020600083815260200190815260200160002054905092915050565b600e5481565b601060009054906101000a900460ff1681565b610a1883838360405180602001604052806000815250610cbb565b505050565b6000610a2761082c565b8210610a6d576000826040517fa57d13dc000000000000000000000000000000000000000000000000000000008152600401610a6492919061300f565b60405180910390fd5b60088281548110610a8157610a80613038565b5b90600052602060002001549050919050565b610a9b61110d565b601060009054906101000a900460ff1615601060006101000a81548160ff021916908315150217905550565b6000610ad282610ff8565b9050919050565b600c5481565b610ae761110d565b80600e8190555050565b60008073ffffffffffffffffffffffffffffffffffffffff168273ffffffffffffffffffffffffffffffffffffffff1603610b645760006040517f89c62b64000000000000000000000000000000000000000000000000000000008152600401610b5b91906129fc565b60405180910390fd5b600360008373ffffffffffffffffffffffffffffffffffffffff1673ffffffffffffffffffffffffffffffffffffffff168152602001908152602001600020549050919050565b610bb361110d565b610bbd6000611194565b565b6000600b60009054906101000a900473ffffffffffffffffffffffffffffffffffffffff16905090565b606060018054610bf890612f3b565b80601f0160208091040260200160405190810160405280929190818152602001828054610c2490612f3b565b8015610c715780601f10610c4657610100808354040283529160200191610c71565b820191906000526020600020905b815481529060010190602001808311610c5457829003601f168201915b5050505050905090565b610c8d610c866110bd565b838361125a565b5050565b600f6020528060005260406000206000915090505481565b610cb161110d565b80600c8190555050565b610cc6848484610839565b610cd2848484846113c9565b50505050565b6060610ce382611580565b9050919050565b6000600d6000815480929190610cff90613096565b919050559050600e548110610d49576040517f08c379a0000000000000000000000000000000000000000000000000000000008152600401610d4090613150565b60405180910390fd5b6006600f60008573ffffffffffffffffffffffffffffffffffffffff1673ffffffffffffffffffffffffffffffffffffffff1681526020019081526020016000205410610dcb576040517f08c379a0000000000000000000000000000000000000000000000000000000008152600401610dc2906131bc565b60405180910390fd5b600c543414610e0f576040517f08c379a0000000000000000000000000000000000000000000000000000000008152600401610e0690613228565b60405180910390fd5b600f60008473ffffffffffffffffffffffffffffffffffffffff1673ffffffffffffffffffffffffffffffffffffffff1681526020019081526020016000206000815480929190610e5f90613096565b9190505550610e6e8382611693565b610e7881836116b1565b505050565b6000600560008473ffffffffffffffffffffffffffffffffffffffff1673ffffffffffffffffffffffffffffffffffffffff16815260200190815260200160002060008373ffffffffffffffffffffffffffffffffffffffff1673ffffffffffffffffffffffffffffffffffffffff16815260200190815260200160002060009054906101000a900460ff16905092915050565b610f1961110d565b600073ffffffffffffffffffffffffffffffffffffffff168173ffffffffffffffffffffffffffffffffffffffff1603610f8b5760006040517f1e4fbdf7000000000000000000000000000000000000000000000000000000008152600401610f8291906129fc565b60405180910390fd5b610f9481611194565b50565b6000634906490660e01b7bffffffffffffffffffffffffffffffffffffffffffffffffffffffff1916827bffffffffffffffffffffffffffffffffffffffffffffffffffffffff19161480610ff15750610ff08261170d565b5b9050919050565b60008061100483611787565b9050600073ffffffffffffffffffffffffffffffffffffffff168173ffffffffffffffffffffffffffffffffffffffff160361107757826040517f7e27328900000000000000000000000000000000000000000000000000000000815260040161106e9190612b10565b60405180910390fd5b80915050919050565b60006004600083815260200190815260200160002060009054906101000a900473ffffffffffffffffffffffffffffffffffffffff169050919050565b600033905090565b6110d283838360016117c4565b505050565b6110f283838360405180602001604052806000815250611989565b505050565b60006111048484846119a6565b90509392505050565b6111156110bd565b73ffffffffffffffffffffffffffffffffffffffff16611133610bbf565b73ffffffffffffffffffffffffffffffffffffffff1614611192576111566110bd565b6040517f118cdaa700000000000000000000000000000000000000000000000000000000815260040161118991906129fc565b60405180910390fd5b565b6000600b60009054906101000a900473ffffffffffffffffffffffffffffffffffffffff16905081600b60006101000a81548173ffffffffffffffffffffffffffffffffffffffff021916908373ffffffffffffffffffffffffffffffffffffffff1602179055508173ffffffffffffffffffffffffffffffffffffffff168173ffffffffffffffffffffffffffffffffffffffff167f8be0079c531659141344cd1fd0a4f28419497f9722a3daafe3b4186f6b6457e060405160405180910390a35050565b600073ffffffffffffffffffffffffffffffffffffffff168273ffffffffffffffffffffffffffffffffffffffff16036112cb57816040517f5b08ba180000000000000000000000000000000000000000000000000000000081526004016112c291906129fc565b60405180910390fd5b80600560008573ffffffffffffffffffffffffffffffffffffffff1673ffffffffffffffffffffffffffffffffffffffff16815260200190815260200160002060008473ffffffffffffffffffffffffffffffffffffffff1673ffffffffffffffffffffffffffffffffffffffff16815260200190815260200160002060006101000a81548160ff0219169083151502179055508173ffffffffffffffffffffffffffffffffffffffff168373ffffffffffffffffffffffffffffffffffffffff167f17307eab39ab6107e8899845ad3d59bd9653f200f220920489ca2b5937696c31836040516113bc919061288b565b60405180910390a3505050565b60008373ffffffffffffffffffffffffffffffffffffffff163b111561157a578273ffffffffffffffffffffffffffffffffffffffff1663150b7a0261140d6110bd565b8685856040518563ffffffff1660e01b815260040161142f949392919061329d565b6020604051808303816000875af192505050801561146b57506040513d601f19601f8201168201806040525081019061146891906132fe565b60015b6114ef573d806000811461149b576040519150601f19603f3d011682016040523d82523d6000602084013e6114a0565b606091505b5060008151036114e757836040517f64a0ae920000000000000000000000000000000000000000000000000000000081526004016114de91906129fc565b60405180910390fd5b805181602001fd5b63150b7a0260e01b7bffffffffffffffffffffffffffffffffffffffffffffffffffffffff1916817bffffffffffffffffffffffffffffffffffffffffffffffffffffffff19161461157857836040517f64a0ae9200000000000000000000000000000000000000000000000000000000815260040161156f91906129fc565b60405180910390fd5b505b50505050565b606061158b82610ff8565b506000600a600084815260200190815260200160002080546115ac90612f3b565b80601f01602080910402602001604051908101604052809291908181526020018280546115d890612f3b565b80156116255780601f106115fa57610100808354040283529160200191611625565b820191906000526020600020905b81548152906001019060200180831161160857829003601f168201915b505050505090506000611636611ac3565b9050600081510361164b57819250505061168e565b600082511115611680578082604051602001611668929190613367565b6040516020818303038152906040529250505061168e565b61168984611ada565b925050505b919050565b6116ad828260405180602001604052806000815250611b43565b5050565b80600a600084815260200190815260200160002090816116d19190613537565b507ff8e1a15aba9398e019f0b49df1a4fde98ee17ae345cb5f6b5e2c27f5033e8ce7826040516117019190612b10565b60405180910390a15050565b60007f780e9d63000000000000000000000000000000000000000000000000000000007bffffffffffffffffffffffffffffffffffffffffffffffffffffffff1916827bffffffffffffffffffffffffffffffffffffffffffffffffffffffff19161480611780575061177f82611b5f565b5b9050919050565b60006002600083815260200190815260200160002060009054906101000a900473ffffffffffffffffffffffffffffffffffffffff169050919050565b80806117fd5750600073ffffffffffffffffffffffffffffffffffffffff168273ffffffffffffffffffffffffffffffffffffffff1614155b1561193157600061180d84610ff8565b9050600073ffffffffffffffffffffffffffffffffffffffff168373ffffffffffffffffffffffffffffffffffffffff161415801561187857508273ffffffffffffffffffffffffffffffffffffffff168173ffffffffffffffffffffffffffffffffffffffff1614155b801561188b57506118898184610e7d565b155b156118cd57826040517fa9fbf51f0000000000000000000000000000000000000000000000000000000081526004016118c491906129fc565b60405180910390fd5b811561192f57838573ffffffffffffffffffffffffffffffffffffffff168273ffffffffffffffffffffffffffffffffffffffff167f8c5be1e5ebec7d5bd14f71427d1e84f3dd0314c0f7b2291e5b200ac8c7c3b92560405160405180910390a45b505b836004600085815260200190815260200160002060006101000a81548173ffffffffffffffffffffffffffffffffffffffff021916908373ffffffffffffffffffffffffffffffffffffffff16021790555050505050565b611994848484611c41565b6119a0848484846113c9565b50505050565b6000806119b4858585611dae565b9050600073ffffffffffffffffffffffffffffffffffffffff168173ffffffffffffffffffffffffffffffffffffffff16036119f8576119f384611fc8565b611a37565b8473ffffffffffffffffffffffffffffffffffffffff168173ffffffffffffffffffffffffffffffffffffffff1614611a3657611a358185612011565b5b5b600073ffffffffffffffffffffffffffffffffffffffff168573ffffffffffffffffffffffffffffffffffffffff1603611a7957611a7484612172565b611ab8565b8473ffffffffffffffffffffffffffffffffffffffff168173ffffffffffffffffffffffffffffffffffffffff1614611ab757611ab68585612243565b5b5b809150509392505050565b606060405180602001604052806000815250905090565b6060611ae582610ff8565b506000611af0611ac3565b90506000815111611b105760405180602001604052806000815250611b3b565b80611b1a846122ce565b604051602001611b2b929190613367565b6040516020818303038152906040525b915050919050565b611b4d838361239c565b611b5a60008484846113c9565b505050565b60007f80ac58cd000000000000000000000000000000000000000000000000000000007bffffffffffffffffffffffffffffffffffffffffffffffffffffffff1916827bffffffffffffffffffffffffffffffffffffffffffffffffffffffff19161480611c2a57507f5b5e139f000000000000000000000000000000000000000000000000000000007bffffffffffffffffffffffffffffffffffffffffffffffffffffffff1916827bffffffffffffffffffffffffffffffffffffffffffffffffffffffff1916145b80611c3a5750611c3982612495565b5b9050919050565b600073ffffffffffffffffffffffffffffffffffffffff168273ffffffffffffffffffffffffffffffffffffffff1603611cb35760006040517f64a0ae92000000000000000000000000000000000000000000000000000000008152600401611caa91906129fc565b60405180910390fd5b6000611cc1838360006110f7565b9050600073ffffffffffffffffffffffffffffffffffffffff168173ffffffffffffffffffffffffffffffffffffffff1603611d3457816040517f7e273289000000000000000000000000000000000000000000000000000000008152600401611d2b9190612b10565b60405180910390fd5b8373ffffffffffffffffffffffffffffffffffffffff168173ffffffffffffffffffffffffffffffffffffffff1614611da8578382826040517f64283d7b000000000000000000000000000000000000000000000000000000008152600401611d9f93929190612fd8565b60405180910390fd5b50505050565b600080611dba84611787565b9050600073ffffffffffffffffffffffffffffffffffffffff168373ffffffffffffffffffffffffffffffffffffffff1614611dfc57611dfb8184866124ff565b5b600073ffffffffffffffffffffffffffffffffffffffff168173ffffffffffffffffffffffffffffffffffffffff1614611e8d57611e3e6000856000806117c4565b6001600360008373ffffffffffffffffffffffffffffffffffffffff1673ffffffffffffffffffffffffffffffffffffffff168152602001908152602001600020600082825403925050819055505b600073ffffffffffffffffffffffffffffffffffffffff168573ffffffffffffffffffffffffffffffffffffffff1614611f10576001600360008773ffffffffffffffffffffffffffffffffffffffff1673ffffffffffffffffffffffffffffffffffffffff168152602001908152602001600020600082825401925050819055505b846002600086815260200190815260200160002060006101000a81548173ffffffffffffffffffffffffffffffffffffffff021916908373ffffffffffffffffffffffffffffffffffffffff160217905550838573ffffffffffffffffffffffffffffffffffffffff168273ffffffffffffffffffffffffffffffffffffffff167fddf252ad1be2c89b69c2b068fc378daa952ba7f163c4a11628f55a4df523b3ef60405160405180910390a4809150509392505050565b6008805490506009600083815260200190815260200160002081905550600881908060018154018082558091505060019003906000526020600020016000909190919091505550565b600061201c83610af1565b9050600060076000848152602001908152602001600020549050818114612101576000600660008673ffffffffffffffffffffffffffffffffffffffff1673ffffffffffffffffffffffffffffffffffffffff168152602001908152602001600020600084815260200190815260200160002054905080600660008773ffffffffffffffffffffffffffffffffffffffff1673ffffffffffffffffffffffffffffffffffffffff168152602001908152602001600020600084815260200190815260200160002081905550816007600083815260200190815260200160002081905550505b6007600084815260200190815260200160002060009055600660008573ffffffffffffffffffffffffffffffffffffffff1673ffffffffffffffffffffffffffffffffffffffff16815260200190815260200160002060008381526020019081526020016000206000905550505050565b600060016008805490506121869190613609565b90506000600960008481526020019081526020016000205490506000600883815481106121b6576121b5613038565b5b9060005260206000200154905080600883815481106121d8576121d7613038565b5b9060005260206000200181905550816009600083815260200190815260200160002081905550600960008581526020019081526020016000206000905560088054806122275761222661363d565b5b6001900381819060005260206000200160009055905550505050565b6000600161225084610af1565b61225a9190613609565b905081600660008573ffffffffffffffffffffffffffffffffffffffff1673ffffffffffffffffffffffffffffffffffffffff168152602001908152602001600020600083815260200190815260200160002081905550806007600084815260200190815260200160002081905550505050565b6060600060016122dd846125c3565b01905060008167ffffffffffffffff8111156122fc576122fb612c21565b5b6040519080825280601f01601f19166020018201604052801561232e5781602001600182028036833780820191505090505b509050600082602001820190505b600115612391578080600190039150507f3031323334353637383961626364656600000000000000000000000000000000600a86061a8153600a85816123855761238461366c565b5b0494506000850361233c575b819350505050919050565b600073ffffffffffffffffffffffffffffffffffffffff168273ffffffffffffffffffffffffffffffffffffffff160361240e5760006040517f64a0ae9200000000000000000000000000000000000000000000000000000000815260040161240591906129fc565b60405180910390fd5b600061241c838360006110f7565b9050600073ffffffffffffffffffffffffffffffffffffffff168173ffffffffffffffffffffffffffffffffffffffff16146124905760006040517f73c6ac6e00000000000000000000000000000000000000000000000000000000815260040161248791906129fc565b60405180910390fd5b505050565b60007f01ffc9a7000000000000000000000000000000000000000000000000000000007bffffffffffffffffffffffffffffffffffffffffffffffffffffffff1916827bffffffffffffffffffffffffffffffffffffffffffffffffffffffff1916149050919050565b61250a838383612716565b6125be57600073ffffffffffffffffffffffffffffffffffffffff168373ffffffffffffffffffffffffffffffffffffffff160361257f57806040517f7e2732890000000000000000000000000000000000000000000000000000000081526004016125769190612b10565b60405180910390fd5b81816040517f177e802f0000000000000000000000000000000000000000000000000000000081526004016125b592919061300f565b60405180910390fd5b505050565b600080600090507a184f03e93ff9f4daa797ed6e38ed64bf6a1f0100000000000000008310612621577a184f03e93ff9f4daa797ed6e38ed64bf6a1f01000000000000000083816126175761261661366c565b5b0492506040810190505b6d04ee2d6d415b85acef8100000000831061265e576d04ee2d6d415b85acef810000000083816126545761265361366c565b5b0492506020810190505b662386f26fc10000831061268d57662386f26fc1000083816126835761268261366c565b5b0492506010810190505b6305f5e10083106126b6576305f5e10083816126ac576126ab61366c565b5b0492506008810190505b61271083106126db5761271083816126d1576126d061366c565b5b0492506004810190505b606483106126fe57606483816126f4576126f361366c565b5b0492506002810190505b600a831061270d576001810190505b80915050919050565b60008073ffffffffffffffffffffffffffffffffffffffff168373ffffffffffffffffffffffffffffffffffffffff16141580156127ce57508273ffffffffffffffffffffffffffffffffffffffff168473ffffffffffffffffffffffffffffffffffffffff16148061278f575061278e8484610e7d565b5b806127cd57508273ffffffffffffffffffffffffffffffffffffffff166127b583611080565b73ffffffffffffffffffffffffffffffffffffffff16145b5b90509392505050565b6000604051905090565b600080fd5b600080fd5b60007fffffffff0000000000000000000000000000000000000000000000000000000082169050919050565b612820816127eb565b811461282b57600080fd5b50565b60008135905061283d81612817565b92915050565b600060208284031215612859576128586127e1565b5b60006128678482850161282e565b91505092915050565b60008115159050919050565b61288581612870565b82525050565b60006020820190506128a0600083018461287c565b92915050565b600081519050919050565b600082825260208201905092915050565b60005b838110156128e05780820151818401526020810190506128c5565b60008484015250505050565b6000601f19601f8301169050919050565b6000612908826128a6565b61291281856128b1565b93506129228185602086016128c2565b61292b816128ec565b840191505092915050565b6000602082019050818103600083015261295081846128fd565b905092915050565b6000819050919050565b61296b81612958565b811461297657600080fd5b50565b60008135905061298881612962565b92915050565b6000602082840312156129a4576129a36127e1565b5b60006129b284828501612979565b91505092915050565b600073ffffffffffffffffffffffffffffffffffffffff82169050919050565b60006129e6826129bb565b9050919050565b6129f6816129db565b82525050565b6000602082019050612a1160008301846129ed565b92915050565b612a20816129db565b8114612a2b57600080fd5b50565b600081359050612a3d81612a17565b92915050565b60008060408385031215612a5a57612a596127e1565b5b6000612a6885828601612a2e565b9250506020612a7985828601612979565b9150509250929050565b6000612a8e826129bb565b9050919050565b612a9e81612a83565b8114612aa957600080fd5b50565b600081359050612abb81612a95565b92915050565b60008060408385031215612ad857612ad76127e1565b5b6000612ae685828601612aac565b9250506020612af785828601612979565b9150509250929050565b612b0a81612958565b82525050565b6000602082019050612b256000830184612b01565b92915050565b600080600060608486031215612b4457612b436127e1565b5b6000612b5286828701612a2e565b9350506020612b6386828701612a2e565b9250506040612b7486828701612979565b9150509250925092565b600060208284031215612b9457612b936127e1565b5b6000612ba284828501612a2e565b91505092915050565b612bb481612870565b8114612bbf57600080fd5b50565b600081359050612bd181612bab565b92915050565b60008060408385031215612bee57612bed6127e1565b5b6000612bfc85828601612a2e565b9250506020612c0d85828601612bc2565b9150509250929050565b600080fd5b600080fd5b7f4e487b7100000000000000000000000000000000000000000000000000000000600052604160045260246000fd5b612c59826128ec565b810181811067ffffffffffffffff82111715612c7857612c77612c21565b5b80604052505050565b6000612c8b6127d7565b9050612c978282612c50565b919050565b600067ffffffffffffffff821115612cb757612cb6612c21565b5b612cc0826128ec565b9050602081019050919050565b82818337600083830152505050565b6000612cef612cea84612c9c565b612c81565b905082815260208101848484011115612d0b57612d0a612c1c565b5b612d16848285612ccd565b509392505050565b600082601f830112612d3357612d32612c17565b5b8135612d43848260208601612cdc565b91505092915050565b60008060008060808587031215612d6657612d656127e1565b5b6000612d7487828801612a2e565b9450506020612d8587828801612a2e565b9350506040612d9687828801612979565b925050606085013567ffffffffffffffff811115612db757612db66127e6565b5b612dc387828801612d1e565b91505092959194509250565b600067ffffffffffffffff821115612dea57612de9612c21565b5b612df3826128ec565b9050602081019050919050565b6000612e13612e0e84612dcf565b612c81565b905082815260208101848484011115612e2f57612e2e612c1c565b5b612e3a848285612ccd565b509392505050565b600082601f830112612e5757612e56612c17565b5b8135612e67848260208601612e00565b91505092915050565b60008060408385031215612e8757612e866127e1565b5b6000612e9585828601612a2e565b925050602083013567ffffffffffffffff811115612eb657612eb56127e6565b5b612ec285828601612e42565b9150509250929050565b60008060408385031215612ee357612ee26127e1565b5b6000612ef185828601612a2e565b9250506020612f0285828601612a2e565b9150509250929050565b7f4e487b7100000000000000000000000000000000000000000000000000000000600052602260045260246000fd5b60006002820490506001821680612f5357607f821691505b602082108103612f6657612f65612f0c565b5b50919050565b7f506c73207061792074686520636f727265637420616d74000000000000000000600082015250565b6000612fa26017836128b1565b9150612fad82612f6c565b602082019050919050565b60006020820190508181036000830152612fd181612f95565b9050919050565b6000606082019050612fed60008301866129ed565b612ffa6020830185612b01565b61300760408301846129ed565b949350505050565b600060408201905061302460008301856129ed565b6130316020830184612b01565b9392505050565b7f4e487b7100000000000000000000000000000000000000000000000000000000600052603260045260246000fd5b7f4e487b7100000000000000000000000000000000000000000000000000000000600052601160045260246000fd5b60006130a182612958565b91507fffffffffffffffffffffffffffffffffffffffffffffffffffffffffffffffff82036130d3576130d2613067565b5b600182019050919050565b7f416c6c20617661696c61626c65204e4654732068617665206265656e206d696e60008201527f7465640000000000000000000000000000000000000000000000000000000000602082015250565b600061313a6023836128b1565b9150613145826130de565b604082019050919050565b600060208201905081810360008301526131698161312d565b9050919050565b7f4d6178696d756d206d696e74207265616368656420666f722075736572000000600082015250565b60006131a6601d836128b1565b91506131b182613170565b602082019050919050565b600060208201905081810360008301526131d581613199565b9050919050565b7f57726f6e672076616c7565000000000000000000000000000000000000000000600082015250565b6000613212600b836128b1565b915061321d826131dc565b602082019050919050565b6000602082019050818103600083015261324181613205565b9050919050565b600081519050919050565b600082825260208201905092915050565b600061326f82613248565b6132798185613253565b93506132898185602086016128c2565b613292816128ec565b840191505092915050565b60006080820190506132b260008301876129ed565b6132bf60208301866129ed565b6132cc6040830185612b01565b81810360608301526132de8184613264565b905095945050505050565b6000815190506132f881612817565b92915050565b600060208284031215613314576133136127e1565b5b6000613322848285016132e9565b91505092915050565b600081905092915050565b6000613341826128a6565b61334b818561332b565b935061335b8185602086016128c2565b80840191505092915050565b60006133738285613336565b915061337f8284613336565b91508190509392505050565b60008190508160005260206000209050919050565b60006020601f8301049050919050565b600082821b905092915050565b6000600883026133ed7fffffffffffffffffffffffffffffffffffffffffffffffffffffffffffffffff826133b0565b6133f786836133b0565b95508019841693508086168417925050509392505050565b6000819050919050565b600061343461342f61342a84612958565b61340f565b612958565b9050919050565b6000819050919050565b61344e83613419565b61346261345a8261343b565b8484546133bd565b825550505050565b600090565b61347761346a565b613482818484613445565b505050565b5b818110156134a65761349b60008261346f565b600181019050613488565b5050565b601f8211156134eb576134bc8161338b565b6134c5846133a0565b810160208510156134d4578190505b6134e86134e0856133a0565b830182613487565b50505b505050565b600082821c905092915050565b600061350e600019846008026134f0565b1980831691505092915050565b600061352783836134fd565b9150826002028217905092915050565b613540826128a6565b67ffffffffffffffff81111561355957613558612c21565b5b6135638254612f3b565b61356e8282856134aa565b600060209050601f8311600181146135a1576000841561358f578287015190505b613599858261351b565b865550613601565b601f1984166135af8661338b565b60005b828110156135d7578489015182556001820191506020850194506020810190506135b2565b868310156135f457848901516135f0601f8916826134fd565b8355505b6001600288020188555050505b505050505050565b600061361482612958565b915061361f83612958565b925082820390508181111561363757613636613067565b5b92915050565b7f4e487b7100000000000000000000000000000000000000000000000000000000600052603160045260246000fd5b7f4e487b7100000000000000000000000000000000000000000000000000000000600052601260045260246000fdfea264697066735822122097d7de372838bd997ff80457f9393797a4aa3ededd045047c6124734e8f875b864736f6c63430008140033",
  "linkReferences": {},
  "deployedLinkReferences": {}
}