{
  "_format": "hh-sol-artifact-1",
  "contractName": "Nfticket",
  "sourceName": "contracts/Nfticket.sol",
  "abi": [
    {
      "inputs": [
        {
          "internalType": "address",
          "name": "initialOwner",
          "type": "address"
        }
      ],
      "stateMutability": "nonpayable",
      "type": "constructor"
    },
    {
      "inputs": [],
      "name": "ERC721EnumerableForbiddenBatchMint",
      "type": "error"
    },
    {
      "inputs": [
        {
          "internalType": "address",
          "name": "sender",
          "type": "address"
        },
        {
          "internalType": "uint256",
          "name": "tokenId",
          "type": "uint256"
        },
        {
          "internalType": "address",
          "name": "owner",
          "type": "address"
        }
      ],
      "name": "ERC721IncorrectOwner",
      "type": "error"
    },
    {
      "inputs": [
        {
          "internalType": "address",
          "name": "operator",
          "type": "address"
        },
        {
          "internalType": "uint256",
          "name": "tokenId",
          "type": "uint256"
        }
      ],
      "name": "ERC721InsufficientApproval",
      "type": "error"
    },
    {
      "inputs": [
        {
          "internalType": "address",
          "name": "approver",
          "type": "address"
        }
      ],
      "name": "ERC721InvalidApprover",
      "type": "error"
    },
    {
      "inputs": [
        {
          "internalType": "address",
          "name": "operator",
          "type": "address"
        }
      ],
      "name": "ERC721InvalidOperator",
      "type": "error"
    },
    {
      "inputs": [
        {
          "internalType": "address",
          "name": "owner",
          "type": "address"
        }
      ],
      "name": "ERC721InvalidOwner",
      "type": "error"
    },
    {
      "inputs": [
        {
          "internalType": "address",
          "name": "receiver",
          "type": "address"
        }
      ],
      "name": "ERC721InvalidReceiver",
      "type": "error"
    },
    {
      "inputs": [
        {
          "internalType": "address",
          "name": "sender",
          "type": "address"
        }
      ],
      "name": "ERC721InvalidSender",
      "type": "error"
    },
    {
      "inputs": [
        {
          "internalType": "uint256",
          "name": "tokenId",
          "type": "uint256"
        }
      ],
      "name": "ERC721NonexistentToken",
      "type": "error"
    },
    {
      "inputs": [
        {
          "internalType": "address",
          "name": "owner",
          "type": "address"
        },
        {
          "internalType": "uint256",
          "name": "index",
          "type": "uint256"
        }
      ],
      "name": "ERC721OutOfBoundsIndex",
      "type": "error"
    },
    {
      "inputs": [
        {
          "internalType": "address",
          "name": "owner",
          "type": "address"
        }
      ],
      "name": "OwnableInvalidOwner",
      "type": "error"
    },
    {
      "inputs": [
        {
          "internalType": "address",
          "name": "account",
          "type": "address"
        }
      ],
      "name": "OwnableUnauthorizedAccount",
      "type": "error"
    },
    {
      "inputs": [],
      "name": "ReentrancyGuardReentrantCall",
      "type": "error"
    },
    {
      "anonymous": false,
      "inputs": [
        {
          "indexed": true,
          "internalType": "address",
          "name": "owner",
          "type": "address"
        },
        {
          "indexed": true,
          "internalType": "address",
          "name": "approved",
          "type": "address"
        },
        {
          "indexed": true,
          "internalType": "uint256",
          "name": "tokenId",
          "type": "uint256"
        }
      ],
      "name": "Approval",
      "type": "event"
    },
    {
      "anonymous": false,
      "inputs": [
        {
          "indexed": true,
          "internalType": "address",
          "name": "owner",
          "type": "address"
        },
        {
          "indexed": true,
          "internalType": "address",
          "name": "operator",
          "type": "address"
        },
        {
          "indexed": false,
          "internalType": "bool",
          "name": "approved",
          "type": "bool"
        }
      ],
      "name": "ApprovalForAll",
      "type": "event"
    },
    {
      "anonymous": false,
      "inputs": [
        {
          "indexed": false,
          "internalType": "uint256",
          "name": "_fromTokenId",
          "type": "uint256"
        },
        {
          "indexed": false,
          "internalType": "uint256",
          "name": "_toTokenId",
          "type": "uint256"
        }
      ],
      "name": "BatchMetadataUpdate",
      "type": "event"
    },
    {
      "anonymous": false,
      "inputs": [
        {
          "indexed": false,
          "internalType": "uint256",
          "name": "_tokenId",
          "type": "uint256"
        }
      ],
      "name": "MetadataUpdate",
      "type": "event"
    },
    {
      "anonymous": false,
      "inputs": [
        {
          "indexed": true,
          "internalType": "address",
          "name": "previousOwner",
          "type": "address"
        },
        {
          "indexed": true,
          "internalType": "address",
          "name": "newOwner",
          "type": "address"
        }
      ],
      "name": "OwnershipTransferred",
      "type": "event"
    },
    {
      "anonymous": false,
      "inputs": [
        {
          "indexed": true,
          "internalType": "address",
          "name": "from",
          "type": "address"
        },
        {
          "indexed": true,
          "internalType": "address",
          "name": "to",
          "type": "address"
        },
        {
          "indexed": true,
          "internalType": "uint256",
          "name": "tokenId",
          "type": "uint256"
        }
      ],
      "name": "Transfer",
      "type": "event"
    },
    {
      "stateMutability": "payable",
      "type": "fallback"
    },
    {
      "inputs": [],
      "name": "MAX_SUPPLY",
      "outputs": [
        {
          "internalType": "uint256",
          "name": "",
          "type": "uint256"
        }
      ],
      "stateMutability": "view",
      "type": "function"
    },
    {
      "inputs": [
        {
          "internalType": "address",
          "name": "to",
          "type": "address"
        },
        {
          "internalType": "uint256",
          "name": "tokenId",
          "type": "uint256"
        }
      ],
      "name": "approve",
      "outputs": [],
      "stateMutability": "nonpayable",
      "type": "function"
    },
    {
      "inputs": [
        {
          "internalType": "address",
          "name": "owner",
          "type": "address"
        }
      ],
      "name": "balanceOf",
      "outputs": [
        {
          "internalType": "uint256",
          "name": "",
          "type": "uint256"
        }
      ],
      "stateMutability": "view",
      "type": "function"
    },
    {
      "inputs": [
        {
          "internalType": "uint256",
          "name": "tokenId",
          "type": "uint256"
        }
      ],
      "name": "getApproved",
      "outputs": [
        {
          "internalType": "address",
          "name": "",
          "type": "address"
        }
      ],
      "stateMutability": "view",
      "type": "function"
    },
    {
      "inputs": [
        {
          "internalType": "address",
          "name": "addr",
          "type": "address"
        }
      ],
      "name": "getTicketsOwned",
      "outputs": [
        {
          "internalType": "uint256[]",
          "name": "",
          "type": "uint256[]"
        }
      ],
      "stateMutability": "view",
      "type": "function"
    },
    {
      "inputs": [
        {
          "internalType": "address",
          "name": "owner",
          "type": "address"
        },
        {
          "internalType": "address",
          "name": "operator",
          "type": "address"
        }
      ],
      "name": "isApprovedForAll",
      "outputs": [
        {
          "internalType": "bool",
          "name": "",
          "type": "bool"
        }
      ],
      "stateMutability": "view",
      "type": "function"
    },
    {
      "inputs": [],
      "name": "isMintEnabled",
      "outputs": [
        {
          "internalType": "bool",
          "name": "",
          "type": "bool"
        }
      ],
      "stateMutability": "view",
      "type": "function"
    },
    {
      "inputs": [],
      "name": "mintPrice",
      "outputs": [
        {
          "internalType": "uint256",
          "name": "",
          "type": "uint256"
        }
      ],
      "stateMutability": "view",
      "type": "function"
    },
    {
      "inputs": [],
      "name": "name",
      "outputs": [
        {
          "internalType": "string",
          "name": "",
          "type": "string"
        }
      ],
      "stateMutability": "view",
      "type": "function"
    },
    {
      "inputs": [],
      "name": "owner",
      "outputs": [
        {
          "internalType": "address",
          "name": "",
          "type": "address"
        }
      ],
      "stateMutability": "view",
      "type": "function"
    },
    {
      "inputs": [
        {
          "internalType": "uint256",
          "name": "tokenId",
          "type": "uint256"
        }
      ],
      "name": "ownerOf",
      "outputs": [
        {
          "internalType": "address",
          "name": "",
          "type": "address"
        }
      ],
      "stateMutability": "view",
      "type": "function"
    },
    {
      "inputs": [],
      "name": "renounceOwnership",
      "outputs": [],
      "stateMutability": "nonpayable",
      "type": "function"
    },
    {
      "inputs": [
        {
          "internalType": "address",
          "name": "to",
          "type": "address"
        },
        {
          "internalType": "string",
          "name": "uri",
          "type": "string"
        },
        {
          "internalType": "uint256",
          "name": "noOfTickets",
          "type": "uint256"
        }
      ],
      "name": "safeMint",
      "outputs": [],
      "stateMutability": "payable",
      "type": "function"
    },
    {
      "inputs": [
        {
          "internalType": "address",
          "name": "from",
          "type": "address"
        },
        {
          "internalType": "address",
          "name": "to",
          "type": "address"
        },
        {
          "internalType": "uint256",
          "name": "tokenId",
          "type": "uint256"
        }
      ],
      "name": "safeTransferFrom",
      "outputs": [],
      "stateMutability": "nonpayable",
      "type": "function"
    },
    {
      "inputs": [
        {
          "internalType": "address",
          "name": "from",
          "type": "address"
        },
        {
          "internalType": "address",
          "name": "to",
          "type": "address"
        },
        {
          "internalType": "uint256",
          "name": "tokenId",
          "type": "uint256"
        },
        {
          "internalType": "bytes",
          "name": "data",
          "type": "bytes"
        }
      ],
      "name": "safeTransferFrom",
      "outputs": [],
      "stateMutability": "nonpayable",
      "type": "function"
    },
    {
      "inputs": [
        {
          "internalType": "address",
          "name": "operator",
          "type": "address"
        },
        {
          "internalType": "bool",
          "name": "approved",
          "type": "bool"
        }
      ],
      "name": "setApprovalForAll",
      "outputs": [],
      "stateMutability": "nonpayable",
      "type": "function"
    },
    {
      "inputs": [
        {
          "internalType": "uint256",
          "name": "max_supply",
          "type": "uint256"
        }
      ],
      "name": "setMaxSupply",
      "outputs": [],
      "stateMutability": "nonpayable",
      "type": "function"
    },
    {
      "inputs": [
        {
          "internalType": "uint256",
          "name": "mint_price",
          "type": "uint256"
        }
      ],
      "name": "setmintPrice",
      "outputs": [],
      "stateMutability": "nonpayable",
      "type": "function"
    },
    {
      "inputs": [
        {
          "internalType": "bytes4",
          "name": "interfaceId",
          "type": "bytes4"
        }
      ],
      "name": "supportsInterface",
      "outputs": [
        {
          "internalType": "bool",
          "name": "",
          "type": "bool"
        }
      ],
      "stateMutability": "view",
      "type": "function"
    },
    {
      "inputs": [],
      "name": "symbol",
      "outputs": [
        {
          "internalType": "string",
          "name": "",
          "type": "string"
        }
      ],
      "stateMutability": "view",
      "type": "function"
    },
    {
      "inputs": [],
      "name": "toggleMintEnabled",
      "outputs": [],
      "stateMutability": "nonpayable",
      "type": "function"
    },
    {
      "inputs": [
        {
          "internalType": "uint256",
          "name": "index",
          "type": "uint256"
        }
      ],
      "name": "tokenByIndex",
      "outputs": [
        {
          "internalType": "uint256",
          "name": "",
          "type": "uint256"
        }
      ],
      "stateMutability": "view",
      "type": "function"
    },
    {
      "inputs": [
        {
          "internalType": "address",
          "name": "owner",
          "type": "address"
        },
        {
          "internalType": "uint256",
          "name": "index",
          "type": "uint256"
        }
      ],
      "name": "tokenOfOwnerByIndex",
      "outputs": [
        {
          "internalType": "uint256",
          "name": "",
          "type": "uint256"
        }
      ],
      "stateMutability": "view",
      "type": "function"
    },
    {
      "inputs": [
        {
          "internalType": "uint256",
          "name": "tokenId",
          "type": "uint256"
        }
      ],
      "name": "tokenURI",
      "outputs": [
        {
          "internalType": "string",
          "name": "",
          "type": "string"
        }
      ],
      "stateMutability": "view",
      "type": "function"
    },
    {
      "inputs": [],
      "name": "totalSupply",
      "outputs": [
        {
          "internalType": "uint256",
          "name": "",
          "type": "uint256"
        }
      ],
      "stateMutability": "view",
      "type": "function"
    },
    {
      "inputs": [],
      "name": "transferAll",
      "outputs": [],
      "stateMutability": "nonpayable",
      "type": "function"
    },
    {
      "inputs": [
        {
          "internalType": "address",
          "name": "from",
          "type": "address"
        },
        {
          "internalType": "address",
          "name": "to",
          "type": "address"
        },
        {
          "internalType": "uint256",
          "name": "tokenId",
          "type": "uint256"
        }
      ],
      "name": "transferFrom",
      "outputs": [],
      "stateMutability": "nonpayable",
      "type": "function"
    },
    {
      "inputs": [
        {
          "internalType": "address",
          "name": "newOwner",
          "type": "address"
        }
      ],
      "name": "transferOwnership",
      "outputs": [],
      "stateMutability": "nonpayable",
      "type": "function"
    },
    {
      "inputs": [
        {
          "internalType": "address payable",
          "name": "from",
          "type": "address"
        },
        {
          "internalType": "uint256",
          "name": "tokenId",
          "type": "uint256"
        }
      ],
      "name": "transferToken",
      "outputs": [
        {
          "internalType": "uint256",
          "name": "",
          "type": "uint256"
        }
      ],
      "stateMutability": "payable",
      "type": "function"
    },
    {
      "stateMutability": "payable",
      "type": "receive"
    }
  ],
  "bytecode": "0x60806040523480156200001157600080fd5b506040516200417138038062004171833981810160405281019062000037919062000290565b806040518060400160405280600c81526020017f5461796c6f7220537769667400000000000000000000000000000000000000008152506040518060400160405280600281526020017f54530000000000000000000000000000000000000000000000000000000000008152508160009081620000b591906200053c565b508060019081620000c791906200053c565b505050600073ffffffffffffffffffffffffffffffffffffffff168173ffffffffffffffffffffffffffffffffffffffff16036200013f5760006040517f1e4fbdf700000000000000000000000000000000000000000000000000000000815260040162000136919062000634565b60405180910390fd5b62000150816200016060201b60201c565b506001600c819055505062000651565b6000600b60009054906101000a900473ffffffffffffffffffffffffffffffffffffffff16905081600b60006101000a81548173ffffffffffffffffffffffffffffffffffffffff021916908373ffffffffffffffffffffffffffffffffffffffff1602179055508173ffffffffffffffffffffffffffffffffffffffff168173ffffffffffffffffffffffffffffffffffffffff167f8be0079c531659141344cd1fd0a4f28419497f9722a3daafe3b4186f6b6457e060405160405180910390a35050565b600080fd5b600073ffffffffffffffffffffffffffffffffffffffff82169050919050565b600062000258826200022b565b9050919050565b6200026a816200024b565b81146200027657600080fd5b50565b6000815190506200028a816200025f565b92915050565b600060208284031215620002a957620002a862000226565b5b6000620002b98482850162000279565b91505092915050565b600081519050919050565b7f4e487b7100000000000000000000000000000000000000000000000000000000600052604160045260246000fd5b7f4e487b7100000000000000000000000000000000000000000000000000000000600052602260045260246000fd5b600060028204905060018216806200034457607f821691505b6020821081036200035a5762000359620002fc565b5b50919050565b60008190508160005260206000209050919050565b60006020601f8301049050919050565b600082821b905092915050565b600060088302620003c47fffffffffffffffffffffffffffffffffffffffffffffffffffffffffffffffff8262000385565b620003d0868362000385565b95508019841693508086168417925050509392505050565b6000819050919050565b6000819050919050565b60006200041d620004176200041184620003e8565b620003f2565b620003e8565b9050919050565b6000819050919050565b6200043983620003fc565b62000451620004488262000424565b84845462000392565b825550505050565b600090565b6200046862000459565b620004758184846200042e565b505050565b5b818110156200049d57620004916000826200045e565b6001810190506200047b565b5050565b601f821115620004ec57620004b68162000360565b620004c18462000375565b81016020851015620004d1578190505b620004e9620004e08562000375565b8301826200047a565b50505b505050565b600082821c905092915050565b60006200051160001984600802620004f1565b1980831691505092915050565b60006200052c8383620004fe565b9150826002028217905092915050565b6200054782620002c2565b67ffffffffffffffff811115620005635762000562620002cd565b5b6200056f82546200032b565b6200057c828285620004a1565b600060209050601f831160018114620005b457600084156200059f578287015190505b620005ab85826200051e565b8655506200061b565b601f198416620005c48662000360565b60005b82811015620005ee57848901518255600182019150602085019450602081019050620005c7565b868310156200060e57848901516200060a601f891682620004fe565b8355505b6001600288020188555050505b505050505050565b6200062e816200024b565b82525050565b60006020820190506200064b600083018462000623565b92915050565b613b1080620006616000396000f3fe6080604052600436106101c65760003560e01c80636352211e116100f7578063a22cb46511610095578063c87b56dd11610064578063c87b56dd1461061a578063e985e9c514610657578063f2fde38b14610694578063fded32ed146106bd576101cd565b8063a22cb46514610583578063b488cf18146105ac578063b88d4fde146105d5578063c772745a146105fe576101cd565b806370a08231116100d157806370a08231146104d9578063715018a6146105165780638da5cb5b1461052d57806395d89b4114610558576101cd565b80636352211e146104485780636817c76c146104855780636f8b44b0146104b0576101cd565b806323b872dd11610164578063346de50a1161013e578063346de50a146103a057806342842e0e146103cb5780634f6ccce7146103f457806361f5baeb14610431576101cd565b806323b872dd1461030f5780632f745c591461033857806332cb6b0c14610375576101cd565b8063081812fc116101a0578063081812fc1461024e578063095ea7b31461028b5780631072cbea146102b457806318160ddd146102e4576101cd565b806301ffc9a7146101cf578063051f4f6f1461020c57806306fdde0314610223576101cd565b366101cd57005b005b3480156101db57600080fd5b506101f660048036038101906101f19190612adb565b6106fa565b6040516102039190612b23565b60405180910390f35b34801561021857600080fd5b5061022161070c565b005b34801561022f57600080fd5b506102386107e2565b6040516102459190612bce565b60405180910390f35b34801561025a57600080fd5b5061027560048036038101906102709190612c26565b610874565b6040516102829190612c94565b60405180910390f35b34801561029757600080fd5b506102b260048036038101906102ad9190612cdb565b610890565b005b6102ce60048036038101906102c99190612d59565b6108a6565b6040516102db9190612da8565b60405180910390f35b3480156102f057600080fd5b506102f96109b2565b6040516103069190612da8565b60405180910390f35b34801561031b57600080fd5b5061033660048036038101906103319190612dc3565b6109bf565b005b34801561034457600080fd5b5061035f600480360381019061035a9190612cdb565b610ac1565b60405161036c9190612da8565b60405180910390f35b34801561038157600080fd5b5061038a610b6a565b6040516103979190612da8565b60405180910390f35b3480156103ac57600080fd5b506103b5610b70565b6040516103c29190612b23565b60405180910390f35b3480156103d757600080fd5b506103f260048036038101906103ed9190612dc3565b610b83565b005b34801561040057600080fd5b5061041b60048036038101906104169190612c26565b610ba3565b6040516104289190612da8565b60405180910390f35b34801561043d57600080fd5b50610446610c19565b005b34801561045457600080fd5b5061046f600480360381019061046a9190612c26565b610c4d565b60405161047c9190612c94565b60405180910390f35b34801561049157600080fd5b5061049a610c5f565b6040516104a79190612da8565b60405180910390f35b3480156104bc57600080fd5b506104d760048036038101906104d29190612c26565b610c65565b005b3480156104e557600080fd5b5061050060048036038101906104fb9190612e16565b610c77565b60405161050d9190612da8565b60405180910390f35b34801561052257600080fd5b5061052b610d31565b005b34801561053957600080fd5b50610542610d45565b60405161054f9190612c94565b60405180910390f35b34801561056457600080fd5b5061056d610d6f565b60405161057a9190612bce565b60405180910390f35b34801561058f57600080fd5b506105aa60048036038101906105a59190612e6f565b610e01565b005b3480156105b857600080fd5b506105d360048036038101906105ce9190612c26565b610e17565b005b3480156105e157600080fd5b506105fc60048036038101906105f79190612fe4565b610e29565b005b610618600480360381019061061391906130c7565b610e46565b005b34801561062657600080fd5b50610641600480360381019061063c9190612c26565b611023565b60405161064e9190612bce565b60405180910390f35b34801561066357600080fd5b5061067e6004803603810190610679919061313b565b611035565b60405161068b9190612b23565b60405180910390f35b3480156106a057600080fd5b506106bb60048036038101906106b69190612e16565b6110c9565b005b3480156106c957600080fd5b506106e460048036038101906106df9190612e16565b61114f565b6040516106f19190613239565b60405180910390f35b6000610705826111ff565b9050919050565b610714611260565b3073ffffffffffffffffffffffffffffffffffffffff16638da5cb5b6040518163ffffffff1660e01b8152600401602060405180830381865afa15801561075f573d6000803e3d6000fd5b505050506040513d601f19601f820116820180604052508101906107839190613270565b73ffffffffffffffffffffffffffffffffffffffff166108fc3073ffffffffffffffffffffffffffffffffffffffff16319081150290604051600060405180830381858888f193505050501580156107df573d6000803e3d6000fd5b50565b6060600080546107f1906132cc565b80601f016020809104026020016040519081016040528092919081815260200182805461081d906132cc565b801561086a5780601f1061083f5761010080835404028352916020019161086a565b820191906000526020600020905b81548152906001019060200180831161084d57829003601f168201915b5050505050905090565b600061087f826112e7565b506108898261136f565b9050919050565b6108a2828261089d6113ac565b6113b4565b5050565b60006108b06113c6565b600d5434146108f4576040517f08c379a00000000000000000000000000000000000000000000000000000000081526004016108eb90613349565b60405180910390fd5b60066108ff33610c77565b1061093f576040517f08c379a0000000000000000000000000000000000000000000000000000000008152600401610936906133b5565b60405180910390fd5b61095a8333846040518060200160405280600081525061140c565b8273ffffffffffffffffffffffffffffffffffffffff166108fc349081150290604051600060405180830381858888f193505050501580156109a0573d6000803e3d6000fd5b508190506109ac611429565b92915050565b6000600880549050905090565b600073ffffffffffffffffffffffffffffffffffffffff168273ffffffffffffffffffffffffffffffffffffffff1603610a315760006040517f64a0ae92000000000000000000000000000000000000000000000000000000008152600401610a289190612c94565b60405180910390fd5b6000610a458383610a406113ac565b611433565b90508373ffffffffffffffffffffffffffffffffffffffff168173ffffffffffffffffffffffffffffffffffffffff1614610abb578382826040517f64283d7b000000000000000000000000000000000000000000000000000000008152600401610ab2939291906133d5565b60405180910390fd5b50505050565b6000610acc83610c77565b8210610b115782826040517fa57d13dc000000000000000000000000000000000000000000000000000000008152600401610b0892919061340c565b60405180910390fd5b600660008473ffffffffffffffffffffffffffffffffffffffff1673ffffffffffffffffffffffffffffffffffffffff168152602001908152602001600020600083815260200190815260200160002054905092915050565b600f5481565b601060009054906101000a900460ff1681565b610b9e83838360405180602001604052806000815250610e29565b505050565b6000610bad6109b2565b8210610bf3576000826040517fa57d13dc000000000000000000000000000000000000000000000000000000008152600401610bea92919061340c565b60405180910390fd5b60088281548110610c0757610c06613435565b5b90600052602060002001549050919050565b610c21611260565b601060009054906101000a900460ff1615601060006101000a81548160ff021916908315150217905550565b6000610c58826112e7565b9050919050565b600d5481565b610c6d611260565b80600f8190555050565b60008073ffffffffffffffffffffffffffffffffffffffff168273ffffffffffffffffffffffffffffffffffffffff1603610cea5760006040517f89c62b64000000000000000000000000000000000000000000000000000000008152600401610ce19190612c94565b60405180910390fd5b600360008373ffffffffffffffffffffffffffffffffffffffff1673ffffffffffffffffffffffffffffffffffffffff168152602001908152602001600020549050919050565b610d39611260565b610d436000611449565b565b6000600b60009054906101000a900473ffffffffffffffffffffffffffffffffffffffff16905090565b606060018054610d7e906132cc565b80601f0160208091040260200160405190810160405280929190818152602001828054610daa906132cc565b8015610df75780601f10610dcc57610100808354040283529160200191610df7565b820191906000526020600020905b815481529060010190602001808311610dda57829003601f168201915b5050505050905090565b610e13610e0c6113ac565b838361150f565b5050565b610e1f611260565b80600d8190555050565b610e348484846109bf565b610e408484848461167e565b50505050565b610e4e6113c6565b60005b81811015611014576000600e6000815480929190610e6e90613493565b91905055905060011515601060009054906101000a900460ff16151514610eca576040517f08c379a0000000000000000000000000000000000000000000000000000000008152600401610ec190613527565b60405180910390fd5b600f548110610f0e576040517f08c379a0000000000000000000000000000000000000000000000000000000008152600401610f05906135b9565b60405180910390fd5b6006610f1987610c77565b10610f59576040517f08c379a0000000000000000000000000000000000000000000000000000000008152600401610f50906133b5565b60405180910390fd5b600d5483610f6791906135d9565b3414610fa8576040517f08c379a0000000000000000000000000000000000000000000000000000000008152600401610f9f90613667565b60405180910390fd5b610fb28682611835565b6110008186868080601f016020809104026020016040519081016040528093929190818152602001838380828437600081840152601f19601f82011690508083019250505050505050611853565b50808061100c90613493565b915050610e51565b5061101d611429565b50505050565b606061102e826118af565b9050919050565b6000600560008473ffffffffffffffffffffffffffffffffffffffff1673ffffffffffffffffffffffffffffffffffffffff16815260200190815260200160002060008373ffffffffffffffffffffffffffffffffffffffff1673ffffffffffffffffffffffffffffffffffffffff16815260200190815260200160002060009054906101000a900460ff16905092915050565b6110d1611260565b600073ffffffffffffffffffffffffffffffffffffffff168173ffffffffffffffffffffffffffffffffffffffff16036111435760006040517f1e4fbdf700000000000000000000000000000000000000000000000000000000815260040161113a9190612c94565b60405180910390fd5b61114c81611449565b50565b6060600061115c83610c77565b67ffffffffffffffff81111561117557611174612eb9565b5b6040519080825280602002602001820160405280156111a35781602001602082028036833780820191505090505b50905060005b6111b284610c77565b8110156111f5576111c38482610ac1565b8282815181106111d6576111d5613435565b5b60200260200101818152505080806111ed90613493565b9150506111a9565b5080915050919050565b6000634906490660e01b7bffffffffffffffffffffffffffffffffffffffffffffffffffffffff1916827bffffffffffffffffffffffffffffffffffffffffffffffffffffffff191614806112595750611258826119c2565b5b9050919050565b6112686113ac565b73ffffffffffffffffffffffffffffffffffffffff16611286610d45565b73ffffffffffffffffffffffffffffffffffffffff16146112e5576112a96113ac565b6040517f118cdaa70000000000000000000000000000000000000000000000000000000081526004016112dc9190612c94565b60405180910390fd5b565b6000806112f383611a3c565b9050600073ffffffffffffffffffffffffffffffffffffffff168173ffffffffffffffffffffffffffffffffffffffff160361136657826040517f7e27328900000000000000000000000000000000000000000000000000000000815260040161135d9190612da8565b60405180910390fd5b80915050919050565b60006004600083815260200190815260200160002060009054906101000a900473ffffffffffffffffffffffffffffffffffffffff169050919050565b600033905090565b6113c18383836001611a79565b505050565b6002600c5403611402576040517f3ee5aeb500000000000000000000000000000000000000000000000000000000815260040160405180910390fd5b6002600c81905550565b611417848484611c3e565b6114238484848461167e565b50505050565b6001600c81905550565b6000611440848484611dab565b90509392505050565b6000600b60009054906101000a900473ffffffffffffffffffffffffffffffffffffffff16905081600b60006101000a81548173ffffffffffffffffffffffffffffffffffffffff021916908373ffffffffffffffffffffffffffffffffffffffff1602179055508173ffffffffffffffffffffffffffffffffffffffff168173ffffffffffffffffffffffffffffffffffffffff167f8be0079c531659141344cd1fd0a4f28419497f9722a3daafe3b4186f6b6457e060405160405180910390a35050565b600073ffffffffffffffffffffffffffffffffffffffff168273ffffffffffffffffffffffffffffffffffffffff160361158057816040517f5b08ba180000000000000000000000000000000000000000000000000000000081526004016115779190612c94565b60405180910390fd5b80600560008573ffffffffffffffffffffffffffffffffffffffff1673ffffffffffffffffffffffffffffffffffffffff16815260200190815260200160002060008473ffffffffffffffffffffffffffffffffffffffff1673ffffffffffffffffffffffffffffffffffffffff16815260200190815260200160002060006101000a81548160ff0219169083151502179055508173ffffffffffffffffffffffffffffffffffffffff168373ffffffffffffffffffffffffffffffffffffffff167f17307eab39ab6107e8899845ad3d59bd9653f200f220920489ca2b5937696c31836040516116719190612b23565b60405180910390a3505050565b60008373ffffffffffffffffffffffffffffffffffffffff163b111561182f578273ffffffffffffffffffffffffffffffffffffffff1663150b7a026116c26113ac565b8685856040518563ffffffff1660e01b81526004016116e494939291906136dc565b6020604051808303816000875af192505050801561172057506040513d601f19601f8201168201806040525081019061171d919061373d565b60015b6117a4573d8060008114611750576040519150601f19603f3d011682016040523d82523d6000602084013e611755565b606091505b50600081510361179c57836040517f64a0ae920000000000000000000000000000000000000000000000000000000081526004016117939190612c94565b60405180910390fd5b805181602001fd5b63150b7a0260e01b7bffffffffffffffffffffffffffffffffffffffffffffffffffffffff1916817bffffffffffffffffffffffffffffffffffffffffffffffffffffffff19161461182d57836040517f64a0ae920000000000000000000000000000000000000000000000000000000081526004016118249190612c94565b60405180910390fd5b505b50505050565b61184f828260405180602001604052806000815250611ec8565b5050565b80600a600084815260200190815260200160002090816118739190613916565b507ff8e1a15aba9398e019f0b49df1a4fde98ee17ae345cb5f6b5e2c27f5033e8ce7826040516118a39190612da8565b60405180910390a15050565b60606118ba826112e7565b506000600a600084815260200190815260200160002080546118db906132cc565b80601f0160208091040260200160405190810160405280929190818152602001828054611907906132cc565b80156119545780601f1061192957610100808354040283529160200191611954565b820191906000526020600020905b81548152906001019060200180831161193757829003601f168201915b505050505090506000611965611ee4565b9050600081510361197a5781925050506119bd565b6000825111156119af578082604051602001611997929190613a24565b604051602081830303815290604052925050506119bd565b6119b884611efb565b925050505b919050565b60007f780e9d63000000000000000000000000000000000000000000000000000000007bffffffffffffffffffffffffffffffffffffffffffffffffffffffff1916827bffffffffffffffffffffffffffffffffffffffffffffffffffffffff19161480611a355750611a3482611f64565b5b9050919050565b60006002600083815260200190815260200160002060009054906101000a900473ffffffffffffffffffffffffffffffffffffffff169050919050565b8080611ab25750600073ffffffffffffffffffffffffffffffffffffffff168273ffffffffffffffffffffffffffffffffffffffff1614155b15611be6576000611ac2846112e7565b9050600073ffffffffffffffffffffffffffffffffffffffff168373ffffffffffffffffffffffffffffffffffffffff1614158015611b2d57508273ffffffffffffffffffffffffffffffffffffffff168173ffffffffffffffffffffffffffffffffffffffff1614155b8015611b405750611b3e8184611035565b155b15611b8257826040517fa9fbf51f000000000000000000000000000000000000000000000000000000008152600401611b799190612c94565b60405180910390fd5b8115611be457838573ffffffffffffffffffffffffffffffffffffffff168273ffffffffffffffffffffffffffffffffffffffff167f8c5be1e5ebec7d5bd14f71427d1e84f3dd0314c0f7b2291e5b200ac8c7c3b92560405160405180910390a45b505b836004600085815260200190815260200160002060006101000a81548173ffffffffffffffffffffffffffffffffffffffff021916908373ffffffffffffffffffffffffffffffffffffffff16021790555050505050565b600073ffffffffffffffffffffffffffffffffffffffff168273ffffffffffffffffffffffffffffffffffffffff1603611cb05760006040517f64a0ae92000000000000000000000000000000000000000000000000000000008152600401611ca79190612c94565b60405180910390fd5b6000611cbe83836000611433565b9050600073ffffffffffffffffffffffffffffffffffffffff168173ffffffffffffffffffffffffffffffffffffffff1603611d3157816040517f7e273289000000000000000000000000000000000000000000000000000000008152600401611d289190612da8565b60405180910390fd5b8373ffffffffffffffffffffffffffffffffffffffff168173ffffffffffffffffffffffffffffffffffffffff1614611da5578382826040517f64283d7b000000000000000000000000000000000000000000000000000000008152600401611d9c939291906133d5565b60405180910390fd5b50505050565b600080611db9858585612046565b9050600073ffffffffffffffffffffffffffffffffffffffff168173ffffffffffffffffffffffffffffffffffffffff1603611dfd57611df884612260565b611e3c565b8473ffffffffffffffffffffffffffffffffffffffff168173ffffffffffffffffffffffffffffffffffffffff1614611e3b57611e3a81856122a9565b5b5b600073ffffffffffffffffffffffffffffffffffffffff168573ffffffffffffffffffffffffffffffffffffffff1603611e7e57611e798461240a565b611ebd565b8473ffffffffffffffffffffffffffffffffffffffff168173ffffffffffffffffffffffffffffffffffffffff1614611ebc57611ebb85856124db565b5b5b809150509392505050565b611ed28383612566565b611edf600084848461167e565b505050565b606060405180602001604052806000815250905090565b6060611f06826112e7565b506000611f11611ee4565b90506000815111611f315760405180602001604052806000815250611f5c565b80611f3b8461265f565b604051602001611f4c929190613a24565b6040516020818303038152906040525b915050919050565b60007f80ac58cd000000000000000000000000000000000000000000000000000000007bffffffffffffffffffffffffffffffffffffffffffffffffffffffff1916827bffffffffffffffffffffffffffffffffffffffffffffffffffffffff1916148061202f57507f5b5e139f000000000000000000000000000000000000000000000000000000007bffffffffffffffffffffffffffffffffffffffffffffffffffffffff1916827bffffffffffffffffffffffffffffffffffffffffffffffffffffffff1916145b8061203f575061203e8261272d565b5b9050919050565b60008061205284611a3c565b9050600073ffffffffffffffffffffffffffffffffffffffff168373ffffffffffffffffffffffffffffffffffffffff161461209457612093818486612797565b5b600073ffffffffffffffffffffffffffffffffffffffff168173ffffffffffffffffffffffffffffffffffffffff1614612125576120d6600085600080611a79565b6001600360008373ffffffffffffffffffffffffffffffffffffffff1673ffffffffffffffffffffffffffffffffffffffff168152602001908152602001600020600082825403925050819055505b600073ffffffffffffffffffffffffffffffffffffffff168573ffffffffffffffffffffffffffffffffffffffff16146121a8576001600360008773ffffffffffffffffffffffffffffffffffffffff1673ffffffffffffffffffffffffffffffffffffffff168152602001908152602001600020600082825401925050819055505b846002600086815260200190815260200160002060006101000a81548173ffffffffffffffffffffffffffffffffffffffff021916908373ffffffffffffffffffffffffffffffffffffffff160217905550838573ffffffffffffffffffffffffffffffffffffffff168273ffffffffffffffffffffffffffffffffffffffff167fddf252ad1be2c89b69c2b068fc378daa952ba7f163c4a11628f55a4df523b3ef60405160405180910390a4809150509392505050565b6008805490506009600083815260200190815260200160002081905550600881908060018154018082558091505060019003906000526020600020016000909190919091505550565b60006122b483610c77565b9050600060076000848152602001908152602001600020549050818114612399576000600660008673ffffffffffffffffffffffffffffffffffffffff1673ffffffffffffffffffffffffffffffffffffffff168152602001908152602001600020600084815260200190815260200160002054905080600660008773ffffffffffffffffffffffffffffffffffffffff1673ffffffffffffffffffffffffffffffffffffffff168152602001908152602001600020600084815260200190815260200160002081905550816007600083815260200190815260200160002081905550505b6007600084815260200190815260200160002060009055600660008573ffffffffffffffffffffffffffffffffffffffff1673ffffffffffffffffffffffffffffffffffffffff16815260200190815260200160002060008381526020019081526020016000206000905550505050565b6000600160088054905061241e9190613a48565b905060006009600084815260200190815260200160002054905060006008838154811061244e5761244d613435565b5b9060005260206000200154905080600883815481106124705761246f613435565b5b9060005260206000200181905550816009600083815260200190815260200160002081905550600960008581526020019081526020016000206000905560088054806124bf576124be613a7c565b5b6001900381819060005260206000200160009055905550505050565b600060016124e884610c77565b6124f29190613a48565b905081600660008573ffffffffffffffffffffffffffffffffffffffff1673ffffffffffffffffffffffffffffffffffffffff168152602001908152602001600020600083815260200190815260200160002081905550806007600084815260200190815260200160002081905550505050565b600073ffffffffffffffffffffffffffffffffffffffff168273ffffffffffffffffffffffffffffffffffffffff16036125d85760006040517f64a0ae920000000000000000000000000000000000000000000000000000000081526004016125cf9190612c94565b60405180910390fd5b60006125e683836000611433565b9050600073ffffffffffffffffffffffffffffffffffffffff168173ffffffffffffffffffffffffffffffffffffffff161461265a5760006040517f73c6ac6e0000000000000000000000000000000000000000000000000000000081526004016126519190612c94565b60405180910390fd5b505050565b60606000600161266e8461285b565b01905060008167ffffffffffffffff81111561268d5761268c612eb9565b5b6040519080825280601f01601f1916602001820160405280156126bf5781602001600182028036833780820191505090505b509050600082602001820190505b600115612722578080600190039150507f3031323334353637383961626364656600000000000000000000000000000000600a86061a8153600a858161271657612715613aab565b5b049450600085036126cd575b819350505050919050565b60007f01ffc9a7000000000000000000000000000000000000000000000000000000007bffffffffffffffffffffffffffffffffffffffffffffffffffffffff1916827bffffffffffffffffffffffffffffffffffffffffffffffffffffffff1916149050919050565b6127a28383836129ae565b61285657600073ffffffffffffffffffffffffffffffffffffffff168373ffffffffffffffffffffffffffffffffffffffff160361281757806040517f7e27328900000000000000000000000000000000000000000000000000000000815260040161280e9190612da8565b60405180910390fd5b81816040517f177e802f00000000000000000000000000000000000000000000000000000000815260040161284d92919061340c565b60405180910390fd5b505050565b600080600090507a184f03e93ff9f4daa797ed6e38ed64bf6a1f01000000000000000083106128b9577a184f03e93ff9f4daa797ed6e38ed64bf6a1f01000000000000000083816128af576128ae613aab565b5b0492506040810190505b6d04ee2d6d415b85acef810000000083106128f6576d04ee2d6d415b85acef810000000083816128ec576128eb613aab565b5b0492506020810190505b662386f26fc10000831061292557662386f26fc10000838161291b5761291a613aab565b5b0492506010810190505b6305f5e100831061294e576305f5e100838161294457612943613aab565b5b0492506008810190505b612710831061297357612710838161296957612968613aab565b5b0492506004810190505b60648310612996576064838161298c5761298b613aab565b5b0492506002810190505b600a83106129a5576001810190505b80915050919050565b60008073ffffffffffffffffffffffffffffffffffffffff168373ffffffffffffffffffffffffffffffffffffffff1614158015612a6657508273ffffffffffffffffffffffffffffffffffffffff168473ffffffffffffffffffffffffffffffffffffffff161480612a275750612a268484611035565b5b80612a6557508273ffffffffffffffffffffffffffffffffffffffff16612a4d8361136f565b73ffffffffffffffffffffffffffffffffffffffff16145b5b90509392505050565b6000604051905090565b600080fd5b600080fd5b60007fffffffff0000000000000000000000000000000000000000000000000000000082169050919050565b612ab881612a83565b8114612ac357600080fd5b50565b600081359050612ad581612aaf565b92915050565b600060208284031215612af157612af0612a79565b5b6000612aff84828501612ac6565b91505092915050565b60008115159050919050565b612b1d81612b08565b82525050565b6000602082019050612b386000830184612b14565b92915050565b600081519050919050565b600082825260208201905092915050565b60005b83811015612b78578082015181840152602081019050612b5d565b60008484015250505050565b6000601f19601f8301169050919050565b6000612ba082612b3e565b612baa8185612b49565b9350612bba818560208601612b5a565b612bc381612b84565b840191505092915050565b60006020820190508181036000830152612be88184612b95565b905092915050565b6000819050919050565b612c0381612bf0565b8114612c0e57600080fd5b50565b600081359050612c2081612bfa565b92915050565b600060208284031215612c3c57612c3b612a79565b5b6000612c4a84828501612c11565b91505092915050565b600073ffffffffffffffffffffffffffffffffffffffff82169050919050565b6000612c7e82612c53565b9050919050565b612c8e81612c73565b82525050565b6000602082019050612ca96000830184612c85565b92915050565b612cb881612c73565b8114612cc357600080fd5b50565b600081359050612cd581612caf565b92915050565b60008060408385031215612cf257612cf1612a79565b5b6000612d0085828601612cc6565b9250506020612d1185828601612c11565b9150509250929050565b6000612d2682612c53565b9050919050565b612d3681612d1b565b8114612d4157600080fd5b50565b600081359050612d5381612d2d565b92915050565b60008060408385031215612d7057612d6f612a79565b5b6000612d7e85828601612d44565b9250506020612d8f85828601612c11565b9150509250929050565b612da281612bf0565b82525050565b6000602082019050612dbd6000830184612d99565b92915050565b600080600060608486031215612ddc57612ddb612a79565b5b6000612dea86828701612cc6565b9350506020612dfb86828701612cc6565b9250506040612e0c86828701612c11565b9150509250925092565b600060208284031215612e2c57612e2b612a79565b5b6000612e3a84828501612cc6565b91505092915050565b612e4c81612b08565b8114612e5757600080fd5b50565b600081359050612e6981612e43565b92915050565b60008060408385031215612e8657612e85612a79565b5b6000612e9485828601612cc6565b9250506020612ea585828601612e5a565b9150509250929050565b600080fd5b600080fd5b7f4e487b7100000000000000000000000000000000000000000000000000000000600052604160045260246000fd5b612ef182612b84565b810181811067ffffffffffffffff82111715612f1057612f0f612eb9565b5b80604052505050565b6000612f23612a6f565b9050612f2f8282612ee8565b919050565b600067ffffffffffffffff821115612f4f57612f4e612eb9565b5b612f5882612b84565b9050602081019050919050565b82818337600083830152505050565b6000612f87612f8284612f34565b612f19565b905082815260208101848484011115612fa357612fa2612eb4565b5b612fae848285612f65565b509392505050565b600082601f830112612fcb57612fca612eaf565b5b8135612fdb848260208601612f74565b91505092915050565b60008060008060808587031215612ffe57612ffd612a79565b5b600061300c87828801612cc6565b945050602061301d87828801612cc6565b935050604061302e87828801612c11565b925050606085013567ffffffffffffffff81111561304f5761304e612a7e565b5b61305b87828801612fb6565b91505092959194509250565b600080fd5b600080fd5b60008083601f84011261308757613086612eaf565b5b8235905067ffffffffffffffff8111156130a4576130a3613067565b5b6020830191508360018202830111156130c0576130bf61306c565b5b9250929050565b600080600080606085870312156130e1576130e0612a79565b5b60006130ef87828801612cc6565b945050602085013567ffffffffffffffff8111156131105761310f612a7e565b5b61311c87828801613071565b9350935050604061312f87828801612c11565b91505092959194509250565b6000806040838503121561315257613151612a79565b5b600061316085828601612cc6565b925050602061317185828601612cc6565b9150509250929050565b600081519050919050565b600082825260208201905092915050565b6000819050602082019050919050565b6131b081612bf0565b82525050565b60006131c283836131a7565b60208301905092915050565b6000602082019050919050565b60006131e68261317b565b6131f08185613186565b93506131fb83613197565b8060005b8381101561322c57815161321388826131b6565b975061321e836131ce565b9250506001810190506131ff565b5085935050505092915050565b6000602082019050818103600083015261325381846131db565b905092915050565b60008151905061326a81612caf565b92915050565b60006020828403121561328657613285612a79565b5b60006132948482850161325b565b91505092915050565b7f4e487b7100000000000000000000000000000000000000000000000000000000600052602260045260246000fd5b600060028204905060018216806132e457607f821691505b6020821081036132f7576132f661329d565b5b50919050565b7f506c65617365207061792074686520636f727265637420616d6f756e74000000600082015250565b6000613333601d83612b49565b915061333e826132fd565b602082019050919050565b6000602082019050818103600083015261336281613326565b9050919050565b7f4d6178696d756d207469636b657473207265616368656420666f722075736572600082015250565b600061339f602083612b49565b91506133aa82613369565b602082019050919050565b600060208201905081810360008301526133ce81613392565b9050919050565b60006060820190506133ea6000830186612c85565b6133f76020830185612d99565b6134046040830184612c85565b949350505050565b60006040820190506134216000830185612c85565b61342e6020830184612d99565b9392505050565b7f4e487b7100000000000000000000000000000000000000000000000000000000600052603260045260246000fd5b7f4e487b7100000000000000000000000000000000000000000000000000000000600052601160045260246000fd5b600061349e82612bf0565b91507fffffffffffffffffffffffffffffffffffffffffffffffffffffffffffffffff82036134d0576134cf613464565b5b600182019050919050565b7f4d696e74696e6720686173206e6f74206265656e20656e61626c656421000000600082015250565b6000613511601d83612b49565b915061351c826134db565b602082019050919050565b6000602082019050818103600083015261354081613504565b9050919050565b7f416c6c20617661696c61626c65207469636b6574732068617665206265656e2060008201527f6d696e7465640000000000000000000000000000000000000000000000000000602082015250565b60006135a3602683612b49565b91506135ae82613547565b604082019050919050565b600060208201905081810360008301526135d281613596565b9050919050565b60006135e482612bf0565b91506135ef83612bf0565b92508282026135fd81612bf0565b9150828204841483151761361457613613613464565b5b5092915050565b7f4e6f7420656e6f75676820657468657200000000000000000000000000000000600082015250565b6000613651601083612b49565b915061365c8261361b565b602082019050919050565b6000602082019050818103600083015261368081613644565b9050919050565b600081519050919050565b600082825260208201905092915050565b60006136ae82613687565b6136b88185613692565b93506136c8818560208601612b5a565b6136d181612b84565b840191505092915050565b60006080820190506136f16000830187612c85565b6136fe6020830186612c85565b61370b6040830185612d99565b818103606083015261371d81846136a3565b905095945050505050565b60008151905061373781612aaf565b92915050565b60006020828403121561375357613752612a79565b5b600061376184828501613728565b91505092915050565b60008190508160005260206000209050919050565b60006020601f8301049050919050565b600082821b905092915050565b6000600883026137cc7fffffffffffffffffffffffffffffffffffffffffffffffffffffffffffffffff8261378f565b6137d6868361378f565b95508019841693508086168417925050509392505050565b6000819050919050565b600061381361380e61380984612bf0565b6137ee565b612bf0565b9050919050565b6000819050919050565b61382d836137f8565b6138416138398261381a565b84845461379c565b825550505050565b600090565b613856613849565b613861818484613824565b505050565b5b818110156138855761387a60008261384e565b600181019050613867565b5050565b601f8211156138ca5761389b8161376a565b6138a48461377f565b810160208510156138b3578190505b6138c76138bf8561377f565b830182613866565b50505b505050565b600082821c905092915050565b60006138ed600019846008026138cf565b1980831691505092915050565b600061390683836138dc565b9150826002028217905092915050565b61391f82612b3e565b67ffffffffffffffff81111561393857613937612eb9565b5b61394282546132cc565b61394d828285613889565b600060209050601f831160018114613980576000841561396e578287015190505b61397885826138fa565b8655506139e0565b601f19841661398e8661376a565b60005b828110156139b657848901518255600182019150602085019450602081019050613991565b868310156139d357848901516139cf601f8916826138dc565b8355505b6001600288020188555050505b505050505050565b600081905092915050565b60006139fe82612b3e565b613a0881856139e8565b9350613a18818560208601612b5a565b80840191505092915050565b6000613a3082856139f3565b9150613a3c82846139f3565b91508190509392505050565b6000613a5382612bf0565b9150613a5e83612bf0565b9250828203905081811115613a7657613a75613464565b5b92915050565b7f4e487b7100000000000000000000000000000000000000000000000000000000600052603160045260246000fd5b7f4e487b7100000000000000000000000000000000000000000000000000000000600052601260045260246000fdfea26469706673582212209d8c5128721198c921581320065ffe55d763518259673c9ec6887e63429d740864736f6c63430008140033",
  "linkReferences": {},
  "deployedLinkReferences": {}
}