{
  "_format": "hh-sol-artifact-1",
  "contractName": "Nfticket",
  "sourceName": "contracts/Nfticket.sol",
  "abi": [
    {
      "inputs": [
        {
          "internalType": "address",
          "name": "initialOwner",
          "type": "address"
        },
        {
          "internalType": "uint256",
          "name": "_maxSupply",
          "type": "uint256"
        },
        {
          "internalType": "uint256",
          "name": "_mintPrice",
          "type": "uint256"
        }
      ],
      "stateMutability": "nonpayable",
      "type": "constructor"
    },
    {
      "inputs": [],
      "name": "ERC721EnumerableForbiddenBatchMint",
      "type": "error"
    },
    {
      "inputs": [
        {
          "internalType": "address",
          "name": "sender",
          "type": "address"
        },
        {
          "internalType": "uint256",
          "name": "tokenId",
          "type": "uint256"
        },
        {
          "internalType": "address",
          "name": "owner",
          "type": "address"
        }
      ],
      "name": "ERC721IncorrectOwner",
      "type": "error"
    },
    {
      "inputs": [
        {
          "internalType": "address",
          "name": "operator",
          "type": "address"
        },
        {
          "internalType": "uint256",
          "name": "tokenId",
          "type": "uint256"
        }
      ],
      "name": "ERC721InsufficientApproval",
      "type": "error"
    },
    {
      "inputs": [
        {
          "internalType": "address",
          "name": "approver",
          "type": "address"
        }
      ],
      "name": "ERC721InvalidApprover",
      "type": "error"
    },
    {
      "inputs": [
        {
          "internalType": "address",
          "name": "operator",
          "type": "address"
        }
      ],
      "name": "ERC721InvalidOperator",
      "type": "error"
    },
    {
      "inputs": [
        {
          "internalType": "address",
          "name": "owner",
          "type": "address"
        }
      ],
      "name": "ERC721InvalidOwner",
      "type": "error"
    },
    {
      "inputs": [
        {
          "internalType": "address",
          "name": "receiver",
          "type": "address"
        }
      ],
      "name": "ERC721InvalidReceiver",
      "type": "error"
    },
    {
      "inputs": [
        {
          "internalType": "address",
          "name": "sender",
          "type": "address"
        }
      ],
      "name": "ERC721InvalidSender",
      "type": "error"
    },
    {
      "inputs": [
        {
          "internalType": "uint256",
          "name": "tokenId",
          "type": "uint256"
        }
      ],
      "name": "ERC721NonexistentToken",
      "type": "error"
    },
    {
      "inputs": [
        {
          "internalType": "address",
          "name": "owner",
          "type": "address"
        },
        {
          "internalType": "uint256",
          "name": "index",
          "type": "uint256"
        }
      ],
      "name": "ERC721OutOfBoundsIndex",
      "type": "error"
    },
    {
      "inputs": [
        {
          "internalType": "address",
          "name": "owner",
          "type": "address"
        }
      ],
      "name": "OwnableInvalidOwner",
      "type": "error"
    },
    {
      "inputs": [
        {
          "internalType": "address",
          "name": "account",
          "type": "address"
        }
      ],
      "name": "OwnableUnauthorizedAccount",
      "type": "error"
    },
    {
      "inputs": [],
      "name": "ReentrancyGuardReentrantCall",
      "type": "error"
    },
    {
      "anonymous": false,
      "inputs": [
        {
          "indexed": true,
          "internalType": "address",
          "name": "owner",
          "type": "address"
        },
        {
          "indexed": true,
          "internalType": "address",
          "name": "approved",
          "type": "address"
        },
        {
          "indexed": true,
          "internalType": "uint256",
          "name": "tokenId",
          "type": "uint256"
        }
      ],
      "name": "Approval",
      "type": "event"
    },
    {
      "anonymous": false,
      "inputs": [
        {
          "indexed": true,
          "internalType": "address",
          "name": "owner",
          "type": "address"
        },
        {
          "indexed": true,
          "internalType": "address",
          "name": "operator",
          "type": "address"
        },
        {
          "indexed": false,
          "internalType": "bool",
          "name": "approved",
          "type": "bool"
        }
      ],
      "name": "ApprovalForAll",
      "type": "event"
    },
    {
      "anonymous": false,
      "inputs": [
        {
          "indexed": false,
          "internalType": "uint256",
          "name": "_fromTokenId",
          "type": "uint256"
        },
        {
          "indexed": false,
          "internalType": "uint256",
          "name": "_toTokenId",
          "type": "uint256"
        }
      ],
      "name": "BatchMetadataUpdate",
      "type": "event"
    },
    {
      "anonymous": false,
      "inputs": [
        {
          "indexed": false,
          "internalType": "uint256",
          "name": "_tokenId",
          "type": "uint256"
        }
      ],
      "name": "MetadataUpdate",
      "type": "event"
    },
    {
      "anonymous": false,
      "inputs": [
        {
          "indexed": true,
          "internalType": "address",
          "name": "previousOwner",
          "type": "address"
        },
        {
          "indexed": true,
          "internalType": "address",
          "name": "newOwner",
          "type": "address"
        }
      ],
      "name": "OwnershipTransferred",
      "type": "event"
    },
    {
      "anonymous": false,
      "inputs": [
        {
          "indexed": true,
          "internalType": "address",
          "name": "from",
          "type": "address"
        },
        {
          "indexed": true,
          "internalType": "address",
          "name": "to",
          "type": "address"
        },
        {
          "indexed": true,
          "internalType": "uint256",
          "name": "tokenId",
          "type": "uint256"
        }
      ],
      "name": "Transfer",
      "type": "event"
    },
    {
      "stateMutability": "payable",
      "type": "fallback"
    },
    {
      "inputs": [
        {
          "internalType": "address",
          "name": "to",
          "type": "address"
        },
        {
          "internalType": "uint256",
          "name": "tokenId",
          "type": "uint256"
        }
      ],
      "name": "approve",
      "outputs": [],
      "stateMutability": "nonpayable",
      "type": "function"
    },
    {
      "inputs": [
        {
          "internalType": "address",
          "name": "owner",
          "type": "address"
        }
      ],
      "name": "balanceOf",
      "outputs": [
        {
          "internalType": "uint256",
          "name": "",
          "type": "uint256"
        }
      ],
      "stateMutability": "view",
      "type": "function"
    },
    {
      "inputs": [
        {
          "internalType": "uint256",
          "name": "tokenId",
          "type": "uint256"
        }
      ],
      "name": "getApproved",
      "outputs": [
        {
          "internalType": "address",
          "name": "",
          "type": "address"
        }
      ],
      "stateMutability": "view",
      "type": "function"
    },
    {
      "inputs": [
        {
          "internalType": "address",
          "name": "addr",
          "type": "address"
        }
      ],
      "name": "getTicketsOwned",
      "outputs": [
        {
          "internalType": "uint256[]",
          "name": "",
          "type": "uint256[]"
        }
      ],
      "stateMutability": "view",
      "type": "function"
    },
    {
      "inputs": [
        {
          "internalType": "address",
          "name": "owner",
          "type": "address"
        },
        {
          "internalType": "address",
          "name": "operator",
          "type": "address"
        }
      ],
      "name": "isApprovedForAll",
      "outputs": [
        {
          "internalType": "bool",
          "name": "",
          "type": "bool"
        }
      ],
      "stateMutability": "view",
      "type": "function"
    },
    {
      "inputs": [],
      "name": "isMintEnabled",
      "outputs": [
        {
          "internalType": "bool",
          "name": "",
          "type": "bool"
        }
      ],
      "stateMutability": "view",
      "type": "function"
    },
    {
      "inputs": [],
      "name": "maxSupply",
      "outputs": [
        {
          "internalType": "uint256",
          "name": "",
          "type": "uint256"
        }
      ],
      "stateMutability": "view",
      "type": "function"
    },
    {
      "inputs": [],
      "name": "mintPrice",
      "outputs": [
        {
          "internalType": "uint256",
          "name": "",
          "type": "uint256"
        }
      ],
      "stateMutability": "view",
      "type": "function"
    },
    {
      "inputs": [],
      "name": "name",
      "outputs": [
        {
          "internalType": "string",
          "name": "",
          "type": "string"
        }
      ],
      "stateMutability": "view",
      "type": "function"
    },
    {
      "inputs": [],
      "name": "owner",
      "outputs": [
        {
          "internalType": "address",
          "name": "",
          "type": "address"
        }
      ],
      "stateMutability": "view",
      "type": "function"
    },
    {
      "inputs": [
        {
          "internalType": "uint256",
          "name": "tokenId",
          "type": "uint256"
        }
      ],
      "name": "ownerOf",
      "outputs": [
        {
          "internalType": "address",
          "name": "",
          "type": "address"
        }
      ],
      "stateMutability": "view",
      "type": "function"
    },
    {
      "inputs": [],
      "name": "renounceOwnership",
      "outputs": [],
      "stateMutability": "nonpayable",
      "type": "function"
    },
    {
      "inputs": [
        {
          "internalType": "address",
          "name": "to",
          "type": "address"
        },
        {
          "internalType": "string",
          "name": "uri",
          "type": "string"
        },
        {
          "internalType": "uint256",
          "name": "noOfTickets",
          "type": "uint256"
        }
      ],
      "name": "safeMint",
      "outputs": [],
      "stateMutability": "payable",
      "type": "function"
    },
    {
      "inputs": [
        {
          "internalType": "address",
          "name": "from",
          "type": "address"
        },
        {
          "internalType": "address",
          "name": "to",
          "type": "address"
        },
        {
          "internalType": "uint256",
          "name": "tokenId",
          "type": "uint256"
        }
      ],
      "name": "safeTransferFrom",
      "outputs": [],
      "stateMutability": "nonpayable",
      "type": "function"
    },
    {
      "inputs": [
        {
          "internalType": "address",
          "name": "from",
          "type": "address"
        },
        {
          "internalType": "address",
          "name": "to",
          "type": "address"
        },
        {
          "internalType": "uint256",
          "name": "tokenId",
          "type": "uint256"
        },
        {
          "internalType": "bytes",
          "name": "data",
          "type": "bytes"
        }
      ],
      "name": "safeTransferFrom",
      "outputs": [],
      "stateMutability": "nonpayable",
      "type": "function"
    },
    {
      "inputs": [
        {
          "internalType": "address",
          "name": "operator",
          "type": "address"
        },
        {
          "internalType": "bool",
          "name": "approved",
          "type": "bool"
        }
      ],
      "name": "setApprovalForAll",
      "outputs": [],
      "stateMutability": "nonpayable",
      "type": "function"
    },
    {
      "inputs": [
        {
          "internalType": "bytes4",
          "name": "interfaceId",
          "type": "bytes4"
        }
      ],
      "name": "supportsInterface",
      "outputs": [
        {
          "internalType": "bool",
          "name": "",
          "type": "bool"
        }
      ],
      "stateMutability": "view",
      "type": "function"
    },
    {
      "inputs": [],
      "name": "symbol",
      "outputs": [
        {
          "internalType": "string",
          "name": "",
          "type": "string"
        }
      ],
      "stateMutability": "view",
      "type": "function"
    },
    {
      "inputs": [],
      "name": "toggleMintEnabled",
      "outputs": [],
      "stateMutability": "nonpayable",
      "type": "function"
    },
    {
      "inputs": [
        {
          "internalType": "uint256",
          "name": "index",
          "type": "uint256"
        }
      ],
      "name": "tokenByIndex",
      "outputs": [
        {
          "internalType": "uint256",
          "name": "",
          "type": "uint256"
        }
      ],
      "stateMutability": "view",
      "type": "function"
    },
    {
      "inputs": [
        {
          "internalType": "address",
          "name": "owner",
          "type": "address"
        },
        {
          "internalType": "uint256",
          "name": "index",
          "type": "uint256"
        }
      ],
      "name": "tokenOfOwnerByIndex",
      "outputs": [
        {
          "internalType": "uint256",
          "name": "",
          "type": "uint256"
        }
      ],
      "stateMutability": "view",
      "type": "function"
    },
    {
      "inputs": [
        {
          "internalType": "uint256",
          "name": "tokenId",
          "type": "uint256"
        }
      ],
      "name": "tokenURI",
      "outputs": [
        {
          "internalType": "string",
          "name": "",
          "type": "string"
        }
      ],
      "stateMutability": "view",
      "type": "function"
    },
    {
      "inputs": [],
      "name": "totalSupply",
      "outputs": [
        {
          "internalType": "uint256",
          "name": "",
          "type": "uint256"
        }
      ],
      "stateMutability": "view",
      "type": "function"
    },
    {
      "inputs": [],
      "name": "transferAll",
      "outputs": [],
      "stateMutability": "nonpayable",
      "type": "function"
    },
    {
      "inputs": [
        {
          "internalType": "address",
          "name": "from",
          "type": "address"
        },
        {
          "internalType": "address",
          "name": "to",
          "type": "address"
        },
        {
          "internalType": "uint256",
          "name": "tokenId",
          "type": "uint256"
        }
      ],
      "name": "transferFrom",
      "outputs": [],
      "stateMutability": "nonpayable",
      "type": "function"
    },
    {
      "inputs": [
        {
          "internalType": "address",
          "name": "newOwner",
          "type": "address"
        }
      ],
      "name": "transferOwnership",
      "outputs": [],
      "stateMutability": "nonpayable",
      "type": "function"
    },
    {
      "inputs": [
        {
          "internalType": "address payable",
          "name": "from",
          "type": "address"
        },
        {
          "internalType": "uint256",
          "name": "tokenId",
          "type": "uint256"
        }
      ],
      "name": "transferToken",
      "outputs": [
        {
          "internalType": "uint256",
          "name": "",
          "type": "uint256"
        }
      ],
      "stateMutability": "payable",
      "type": "function"
    },
    {
      "stateMutability": "payable",
      "type": "receive"
    }
  ],
  "bytecode": "0x60c06040523480156200001157600080fd5b5060405162004214380380620042148339818101604052810190620000379190620002dd565b826040518060400160405280600c81526020017f5461796c6f7220537769667400000000000000000000000000000000000000008152506040518060400160405280600281526020017f54530000000000000000000000000000000000000000000000000000000000008152508160009081620000b59190620005a9565b508060019081620000c79190620005a9565b505050600073ffffffffffffffffffffffffffffffffffffffff168173ffffffffffffffffffffffffffffffffffffffff16036200013f5760006040517f1e4fbdf7000000000000000000000000000000000000000000000000000000008152600401620001369190620006a1565b60405180910390fd5b62000150816200017260201b60201c565b506001600c8190555080608081815250508160a08181525050505050620006be565b6000600b60009054906101000a900473ffffffffffffffffffffffffffffffffffffffff16905081600b60006101000a81548173ffffffffffffffffffffffffffffffffffffffff021916908373ffffffffffffffffffffffffffffffffffffffff1602179055508173ffffffffffffffffffffffffffffffffffffffff168173ffffffffffffffffffffffffffffffffffffffff167f8be0079c531659141344cd1fd0a4f28419497f9722a3daafe3b4186f6b6457e060405160405180910390a35050565b600080fd5b600073ffffffffffffffffffffffffffffffffffffffff82169050919050565b60006200026a826200023d565b9050919050565b6200027c816200025d565b81146200028857600080fd5b50565b6000815190506200029c8162000271565b92915050565b6000819050919050565b620002b781620002a2565b8114620002c357600080fd5b50565b600081519050620002d781620002ac565b92915050565b600080600060608486031215620002f957620002f862000238565b5b600062000309868287016200028b565b93505060206200031c86828701620002c6565b92505060406200032f86828701620002c6565b9150509250925092565b600081519050919050565b7f4e487b7100000000000000000000000000000000000000000000000000000000600052604160045260246000fd5b7f4e487b7100000000000000000000000000000000000000000000000000000000600052602260045260246000fd5b60006002820490506001821680620003bb57607f821691505b602082108103620003d157620003d062000373565b5b50919050565b60008190508160005260206000209050919050565b60006020601f8301049050919050565b600082821b905092915050565b6000600883026200043b7fffffffffffffffffffffffffffffffffffffffffffffffffffffffffffffffff82620003fc565b620004478683620003fc565b95508019841693508086168417925050509392505050565b6000819050919050565b60006200048a620004846200047e84620002a2565b6200045f565b620002a2565b9050919050565b6000819050919050565b620004a68362000469565b620004be620004b58262000491565b84845462000409565b825550505050565b600090565b620004d5620004c6565b620004e28184846200049b565b505050565b5b818110156200050a57620004fe600082620004cb565b600181019050620004e8565b5050565b601f82111562000559576200052381620003d7565b6200052e84620003ec565b810160208510156200053e578190505b620005566200054d85620003ec565b830182620004e7565b50505b505050565b600082821c905092915050565b60006200057e600019846008026200055e565b1980831691505092915050565b60006200059983836200056b565b9150826002028217905092915050565b620005b48262000339565b67ffffffffffffffff811115620005d057620005cf62000344565b5b620005dc8254620003a2565b620005e98282856200050e565b600060209050601f8311600181146200062157600084156200060c578287015190505b6200061885826200058b565b86555062000688565b601f1984166200063186620003d7565b60005b828110156200065b5784890151825560018201915060208501945060208101905062000634565b868310156200067b578489015162000677601f8916826200056b565b8355505b6001600288020188555050505b505050505050565b6200069b816200025d565b82525050565b6000602082019050620006b8600083018462000690565b92915050565b60805160a051613b1b620006f960003960008181610eb90152610ff40152600081816107d301528181610b9a0152610dd60152613b1b6000f3fe6080604052600436106101a05760003560e01c80636352211e116100ec578063b88d4fde1161008a578063d5abeb0111610064578063d5abeb01146105b4578063e985e9c5146105df578063f2fde38b1461061c578063fded32ed14610645576101a7565b8063b88d4fde14610532578063c772745a1461055b578063c87b56dd14610577576101a7565b8063715018a6116100c6578063715018a61461049c5780638da5cb5b146104b357806395d89b41146104de578063a22cb46514610509576101a7565b80636352211e146103f75780636817c76c1461043457806370a082311461045f576101a7565b806318160ddd11610159578063346de50a11610133578063346de50a1461034f57806342842e0e1461037a5780634f6ccce7146103a357806361f5baeb146103e0576101a7565b806318160ddd146102be57806323b872dd146102e95780632f745c5914610312576101a7565b806301ffc9a7146101a9578063051f4f6f146101e657806306fdde03146101fd578063081812fc14610228578063095ea7b3146102655780631072cbea1461028e576101a7565b366101a757005b005b3480156101b557600080fd5b506101d060048036038101906101cb9190612abc565b610682565b6040516101dd9190612b04565b60405180910390f35b3480156101f257600080fd5b506101fb610694565b005b34801561020957600080fd5b50610212610703565b60405161021f9190612baf565b60405180910390f35b34801561023457600080fd5b5061024f600480360381019061024a9190612c07565b610795565b60405161025c9190612c75565b60405180910390f35b34801561027157600080fd5b5061028c60048036038101906102879190612cbc565b6107b1565b005b6102a860048036038101906102a39190612d3a565b6107c7565b6040516102b59190612d89565b60405180910390f35b3480156102ca57600080fd5b506102d36108f1565b6040516102e09190612d89565b60405180910390f35b3480156102f557600080fd5b50610310600480360381019061030b9190612da4565b6108fe565b005b34801561031e57600080fd5b5061033960048036038101906103349190612cbc565b610a00565b6040516103469190612d89565b60405180910390f35b34801561035b57600080fd5b50610364610aa9565b6040516103719190612b04565b60405180910390f35b34801561038657600080fd5b506103a1600480360381019061039c9190612da4565b610abc565b005b3480156103af57600080fd5b506103ca60048036038101906103c59190612c07565b610adc565b6040516103d79190612d89565b60405180910390f35b3480156103ec57600080fd5b506103f5610b52565b005b34801561040357600080fd5b5061041e60048036038101906104199190612c07565b610b86565b60405161042b9190612c75565b60405180910390f35b34801561044057600080fd5b50610449610b98565b6040516104569190612d89565b60405180910390f35b34801561046b57600080fd5b5061048660048036038101906104819190612df7565b610bbc565b6040516104939190612d89565b60405180910390f35b3480156104a857600080fd5b506104b1610c76565b005b3480156104bf57600080fd5b506104c8610c8a565b6040516104d59190612c75565b60405180910390f35b3480156104ea57600080fd5b506104f3610cb4565b6040516105009190612baf565b60405180910390f35b34801561051557600080fd5b50610530600480360381019061052b9190612e50565b610d46565b005b34801561053e57600080fd5b5061055960048036038101906105549190612fc5565b610d5c565b005b610575600480360381019061057091906130a8565b610d79565b005b34801561058357600080fd5b5061059e60048036038101906105999190612c07565b610fe0565b6040516105ab9190612baf565b60405180910390f35b3480156105c057600080fd5b506105c9610ff2565b6040516105d69190612d89565b60405180910390f35b3480156105eb57600080fd5b506106066004803603810190610601919061311c565b611016565b6040516106139190612b04565b60405180910390f35b34801561062857600080fd5b50610643600480360381019061063e9190612df7565b6110aa565b005b34801561065157600080fd5b5061066c60048036038101906106679190612df7565b611130565b604051610679919061321a565b60405180910390f35b600061068d826111e0565b9050919050565b61069c611241565b6106a4610c8a565b73ffffffffffffffffffffffffffffffffffffffff166108fc3073ffffffffffffffffffffffffffffffffffffffff16319081150290604051600060405180830381858888f19350505050158015610700573d6000803e3d6000fd5b50565b6060600080546107129061326b565b80601f016020809104026020016040519081016040528092919081815260200182805461073e9061326b565b801561078b5780601f106107605761010080835404028352916020019161078b565b820191906000526020600020905b81548152906001019060200180831161076e57829003601f168201915b5050505050905090565b60006107a0826112c8565b506107aa82611350565b9050919050565b6107c382826107be61138d565b611395565b5050565b60006107d16113a7565b7f00000000000000000000000000000000000000000000000000000000000000003414610833576040517f08c379a000000000000000000000000000000000000000000000000000000000815260040161082a906132e8565b60405180910390fd5b600661083e33610bbc565b1061087e576040517f08c379a000000000000000000000000000000000000000000000000000000000815260040161087590613354565b60405180910390fd5b610899833384604051806020016040528060008152506113ed565b8273ffffffffffffffffffffffffffffffffffffffff166108fc349081150290604051600060405180830381858888f193505050501580156108df573d6000803e3d6000fd5b508190506108eb61140a565b92915050565b6000600880549050905090565b600073ffffffffffffffffffffffffffffffffffffffff168273ffffffffffffffffffffffffffffffffffffffff16036109705760006040517f64a0ae920000000000000000000000000000000000000000000000000000000081526004016109679190612c75565b60405180910390fd5b6000610984838361097f61138d565b611414565b90508373ffffffffffffffffffffffffffffffffffffffff168173ffffffffffffffffffffffffffffffffffffffff16146109fa578382826040517f64283d7b0000000000000000000000000000000000000000000000000000000081526004016109f193929190613374565b60405180910390fd5b50505050565b6000610a0b83610bbc565b8210610a505782826040517fa57d13dc000000000000000000000000000000000000000000000000000000008152600401610a479291906133ab565b60405180910390fd5b600660008473ffffffffffffffffffffffffffffffffffffffff1673ffffffffffffffffffffffffffffffffffffffff168152602001908152602001600020600083815260200190815260200160002054905092915050565b600e60009054906101000a900460ff1681565b610ad783838360405180602001604052806000815250610d5c565b505050565b6000610ae66108f1565b8210610b2c576000826040517fa57d13dc000000000000000000000000000000000000000000000000000000008152600401610b239291906133ab565b60405180910390fd5b60088281548110610b4057610b3f6133d4565b5b90600052602060002001549050919050565b610b5a611241565b600e60009054906101000a900460ff1615600e60006101000a81548160ff021916908315150217905550565b6000610b91826112c8565b9050919050565b7f000000000000000000000000000000000000000000000000000000000000000081565b60008073ffffffffffffffffffffffffffffffffffffffff168273ffffffffffffffffffffffffffffffffffffffff1603610c2f5760006040517f89c62b64000000000000000000000000000000000000000000000000000000008152600401610c269190612c75565b60405180910390fd5b600360008373ffffffffffffffffffffffffffffffffffffffff1673ffffffffffffffffffffffffffffffffffffffff168152602001908152602001600020549050919050565b610c7e611241565b610c88600061142a565b565b6000600b60009054906101000a900473ffffffffffffffffffffffffffffffffffffffff16905090565b606060018054610cc39061326b565b80601f0160208091040260200160405190810160405280929190818152602001828054610cef9061326b565b8015610d3c5780601f10610d1157610100808354040283529160200191610d3c565b820191906000526020600020905b815481529060010190602001808311610d1f57829003601f168201915b5050505050905090565b610d58610d5161138d565b83836114f0565b5050565b610d678484846108fe565b610d738484848461165f565b50505050565b808064746a528800610d8b9190613432565b3a10610dcc576040517f08c379a0000000000000000000000000000000000000000000000000000000008152600401610dc3906134c0565b60405180910390fd5b610dd46113a7565b7f000000000000000000000000000000000000000000000000000000000000000082610e009190613432565b341015610e42576040517f08c379a0000000000000000000000000000000000000000000000000000000008152600401610e399061352c565b60405180910390fd5b60005b82811015610fd0576000600d6000815480929190610e629061354c565b919050559050600e60009054906101000a900460ff16610eb7576040517f08c379a0000000000000000000000000000000000000000000000000000000008152600401610eae906135e0565b60405180910390fd5b7f00000000000000000000000000000000000000000000000000000000000000008110610f19576040517f08c379a0000000000000000000000000000000000000000000000000000000008152600401610f1090613672565b60405180910390fd5b6006610f2488610bbc565b10610f64576040517f08c379a0000000000000000000000000000000000000000000000000000000008152600401610f5b90613354565b60405180910390fd5b610fb28187878080601f016020809104026020016040519081016040528093929190818152602001838380828437600081840152601f19601f82011690508083019250505050505050611816565b610fbc8782611872565b508080610fc89061354c565b915050610e45565b50610fd961140a565b5050505050565b6060610feb82611890565b9050919050565b7f000000000000000000000000000000000000000000000000000000000000000081565b6000600560008473ffffffffffffffffffffffffffffffffffffffff1673ffffffffffffffffffffffffffffffffffffffff16815260200190815260200160002060008373ffffffffffffffffffffffffffffffffffffffff1673ffffffffffffffffffffffffffffffffffffffff16815260200190815260200160002060009054906101000a900460ff16905092915050565b6110b2611241565b600073ffffffffffffffffffffffffffffffffffffffff168173ffffffffffffffffffffffffffffffffffffffff16036111245760006040517f1e4fbdf700000000000000000000000000000000000000000000000000000000815260040161111b9190612c75565b60405180910390fd5b61112d8161142a565b50565b6060600061113d83610bbc565b67ffffffffffffffff81111561115657611155612e9a565b5b6040519080825280602002602001820160405280156111845781602001602082028036833780820191505090505b50905060005b61119384610bbc565b8110156111d6576111a48482610a00565b8282815181106111b7576111b66133d4565b5b60200260200101818152505080806111ce9061354c565b91505061118a565b5080915050919050565b6000634906490660e01b7bffffffffffffffffffffffffffffffffffffffffffffffffffffffff1916827bffffffffffffffffffffffffffffffffffffffffffffffffffffffff1916148061123a5750611239826119a3565b5b9050919050565b61124961138d565b73ffffffffffffffffffffffffffffffffffffffff16611267610c8a565b73ffffffffffffffffffffffffffffffffffffffff16146112c65761128a61138d565b6040517f118cdaa70000000000000000000000000000000000000000000000000000000081526004016112bd9190612c75565b60405180910390fd5b565b6000806112d483611a1d565b9050600073ffffffffffffffffffffffffffffffffffffffff168173ffffffffffffffffffffffffffffffffffffffff160361134757826040517f7e27328900000000000000000000000000000000000000000000000000000000815260040161133e9190612d89565b60405180910390fd5b80915050919050565b60006004600083815260200190815260200160002060009054906101000a900473ffffffffffffffffffffffffffffffffffffffff169050919050565b600033905090565b6113a28383836001611a5a565b505050565b6002600c54036113e3576040517f3ee5aeb500000000000000000000000000000000000000000000000000000000815260040160405180910390fd5b6002600c81905550565b6113f8848484611c1f565b6114048484848461165f565b50505050565b6001600c81905550565b6000611421848484611d8c565b90509392505050565b6000600b60009054906101000a900473ffffffffffffffffffffffffffffffffffffffff16905081600b60006101000a81548173ffffffffffffffffffffffffffffffffffffffff021916908373ffffffffffffffffffffffffffffffffffffffff1602179055508173ffffffffffffffffffffffffffffffffffffffff168173ffffffffffffffffffffffffffffffffffffffff167f8be0079c531659141344cd1fd0a4f28419497f9722a3daafe3b4186f6b6457e060405160405180910390a35050565b600073ffffffffffffffffffffffffffffffffffffffff168273ffffffffffffffffffffffffffffffffffffffff160361156157816040517f5b08ba180000000000000000000000000000000000000000000000000000000081526004016115589190612c75565b60405180910390fd5b80600560008573ffffffffffffffffffffffffffffffffffffffff1673ffffffffffffffffffffffffffffffffffffffff16815260200190815260200160002060008473ffffffffffffffffffffffffffffffffffffffff1673ffffffffffffffffffffffffffffffffffffffff16815260200190815260200160002060006101000a81548160ff0219169083151502179055508173ffffffffffffffffffffffffffffffffffffffff168373ffffffffffffffffffffffffffffffffffffffff167f17307eab39ab6107e8899845ad3d59bd9653f200f220920489ca2b5937696c31836040516116529190612b04565b60405180910390a3505050565b60008373ffffffffffffffffffffffffffffffffffffffff163b1115611810578273ffffffffffffffffffffffffffffffffffffffff1663150b7a026116a361138d565b8685856040518563ffffffff1660e01b81526004016116c594939291906136e7565b6020604051808303816000875af192505050801561170157506040513d601f19601f820116820180604052508101906116fe9190613748565b60015b611785573d8060008114611731576040519150601f19603f3d011682016040523d82523d6000602084013e611736565b606091505b50600081510361177d57836040517f64a0ae920000000000000000000000000000000000000000000000000000000081526004016117749190612c75565b60405180910390fd5b805181602001fd5b63150b7a0260e01b7bffffffffffffffffffffffffffffffffffffffffffffffffffffffff1916817bffffffffffffffffffffffffffffffffffffffffffffffffffffffff19161461180e57836040517f64a0ae920000000000000000000000000000000000000000000000000000000081526004016118059190612c75565b60405180910390fd5b505b50505050565b80600a600084815260200190815260200160002090816118369190613921565b507ff8e1a15aba9398e019f0b49df1a4fde98ee17ae345cb5f6b5e2c27f5033e8ce7826040516118669190612d89565b60405180910390a15050565b61188c828260405180602001604052806000815250611ea9565b5050565b606061189b826112c8565b506000600a600084815260200190815260200160002080546118bc9061326b565b80601f01602080910402602001604051908101604052809291908181526020018280546118e89061326b565b80156119355780601f1061190a57610100808354040283529160200191611935565b820191906000526020600020905b81548152906001019060200180831161191857829003601f168201915b505050505090506000611946611ec5565b9050600081510361195b57819250505061199e565b600082511115611990578082604051602001611978929190613a2f565b6040516020818303038152906040529250505061199e565b61199984611edc565b925050505b919050565b60007f780e9d63000000000000000000000000000000000000000000000000000000007bffffffffffffffffffffffffffffffffffffffffffffffffffffffff1916827bffffffffffffffffffffffffffffffffffffffffffffffffffffffff19161480611a165750611a1582611f45565b5b9050919050565b60006002600083815260200190815260200160002060009054906101000a900473ffffffffffffffffffffffffffffffffffffffff169050919050565b8080611a935750600073ffffffffffffffffffffffffffffffffffffffff168273ffffffffffffffffffffffffffffffffffffffff1614155b15611bc7576000611aa3846112c8565b9050600073ffffffffffffffffffffffffffffffffffffffff168373ffffffffffffffffffffffffffffffffffffffff1614158015611b0e57508273ffffffffffffffffffffffffffffffffffffffff168173ffffffffffffffffffffffffffffffffffffffff1614155b8015611b215750611b1f8184611016565b155b15611b6357826040517fa9fbf51f000000000000000000000000000000000000000000000000000000008152600401611b5a9190612c75565b60405180910390fd5b8115611bc557838573ffffffffffffffffffffffffffffffffffffffff168273ffffffffffffffffffffffffffffffffffffffff167f8c5be1e5ebec7d5bd14f71427d1e84f3dd0314c0f7b2291e5b200ac8c7c3b92560405160405180910390a45b505b836004600085815260200190815260200160002060006101000a81548173ffffffffffffffffffffffffffffffffffffffff021916908373ffffffffffffffffffffffffffffffffffffffff16021790555050505050565b600073ffffffffffffffffffffffffffffffffffffffff168273ffffffffffffffffffffffffffffffffffffffff1603611c915760006040517f64a0ae92000000000000000000000000000000000000000000000000000000008152600401611c889190612c75565b60405180910390fd5b6000611c9f83836000611414565b9050600073ffffffffffffffffffffffffffffffffffffffff168173ffffffffffffffffffffffffffffffffffffffff1603611d1257816040517f7e273289000000000000000000000000000000000000000000000000000000008152600401611d099190612d89565b60405180910390fd5b8373ffffffffffffffffffffffffffffffffffffffff168173ffffffffffffffffffffffffffffffffffffffff1614611d86578382826040517f64283d7b000000000000000000000000000000000000000000000000000000008152600401611d7d93929190613374565b60405180910390fd5b50505050565b600080611d9a858585612027565b9050600073ffffffffffffffffffffffffffffffffffffffff168173ffffffffffffffffffffffffffffffffffffffff1603611dde57611dd984612241565b611e1d565b8473ffffffffffffffffffffffffffffffffffffffff168173ffffffffffffffffffffffffffffffffffffffff1614611e1c57611e1b818561228a565b5b5b600073ffffffffffffffffffffffffffffffffffffffff168573ffffffffffffffffffffffffffffffffffffffff1603611e5f57611e5a846123eb565b611e9e565b8473ffffffffffffffffffffffffffffffffffffffff168173ffffffffffffffffffffffffffffffffffffffff1614611e9d57611e9c85856124bc565b5b5b809150509392505050565b611eb38383612547565b611ec0600084848461165f565b505050565b606060405180602001604052806000815250905090565b6060611ee7826112c8565b506000611ef2611ec5565b90506000815111611f125760405180602001604052806000815250611f3d565b80611f1c84612640565b604051602001611f2d929190613a2f565b6040516020818303038152906040525b915050919050565b60007f80ac58cd000000000000000000000000000000000000000000000000000000007bffffffffffffffffffffffffffffffffffffffffffffffffffffffff1916827bffffffffffffffffffffffffffffffffffffffffffffffffffffffff1916148061201057507f5b5e139f000000000000000000000000000000000000000000000000000000007bffffffffffffffffffffffffffffffffffffffffffffffffffffffff1916827bffffffffffffffffffffffffffffffffffffffffffffffffffffffff1916145b80612020575061201f8261270e565b5b9050919050565b60008061203384611a1d565b9050600073ffffffffffffffffffffffffffffffffffffffff168373ffffffffffffffffffffffffffffffffffffffff161461207557612074818486612778565b5b600073ffffffffffffffffffffffffffffffffffffffff168173ffffffffffffffffffffffffffffffffffffffff1614612106576120b7600085600080611a5a565b6001600360008373ffffffffffffffffffffffffffffffffffffffff1673ffffffffffffffffffffffffffffffffffffffff168152602001908152602001600020600082825403925050819055505b600073ffffffffffffffffffffffffffffffffffffffff168573ffffffffffffffffffffffffffffffffffffffff1614612189576001600360008773ffffffffffffffffffffffffffffffffffffffff1673ffffffffffffffffffffffffffffffffffffffff168152602001908152602001600020600082825401925050819055505b846002600086815260200190815260200160002060006101000a81548173ffffffffffffffffffffffffffffffffffffffff021916908373ffffffffffffffffffffffffffffffffffffffff160217905550838573ffffffffffffffffffffffffffffffffffffffff168273ffffffffffffffffffffffffffffffffffffffff167fddf252ad1be2c89b69c2b068fc378daa952ba7f163c4a11628f55a4df523b3ef60405160405180910390a4809150509392505050565b6008805490506009600083815260200190815260200160002081905550600881908060018154018082558091505060019003906000526020600020016000909190919091505550565b600061229583610bbc565b905060006007600084815260200190815260200160002054905081811461237a576000600660008673ffffffffffffffffffffffffffffffffffffffff1673ffffffffffffffffffffffffffffffffffffffff168152602001908152602001600020600084815260200190815260200160002054905080600660008773ffffffffffffffffffffffffffffffffffffffff1673ffffffffffffffffffffffffffffffffffffffff168152602001908152602001600020600084815260200190815260200160002081905550816007600083815260200190815260200160002081905550505b6007600084815260200190815260200160002060009055600660008573ffffffffffffffffffffffffffffffffffffffff1673ffffffffffffffffffffffffffffffffffffffff16815260200190815260200160002060008381526020019081526020016000206000905550505050565b600060016008805490506123ff9190613a53565b905060006009600084815260200190815260200160002054905060006008838154811061242f5761242e6133d4565b5b906000526020600020015490508060088381548110612451576124506133d4565b5b9060005260206000200181905550816009600083815260200190815260200160002081905550600960008581526020019081526020016000206000905560088054806124a05761249f613a87565b5b6001900381819060005260206000200160009055905550505050565b600060016124c984610bbc565b6124d39190613a53565b905081600660008573ffffffffffffffffffffffffffffffffffffffff1673ffffffffffffffffffffffffffffffffffffffff168152602001908152602001600020600083815260200190815260200160002081905550806007600084815260200190815260200160002081905550505050565b600073ffffffffffffffffffffffffffffffffffffffff168273ffffffffffffffffffffffffffffffffffffffff16036125b95760006040517f64a0ae920000000000000000000000000000000000000000000000000000000081526004016125b09190612c75565b60405180910390fd5b60006125c783836000611414565b9050600073ffffffffffffffffffffffffffffffffffffffff168173ffffffffffffffffffffffffffffffffffffffff161461263b5760006040517f73c6ac6e0000000000000000000000000000000000000000000000000000000081526004016126329190612c75565b60405180910390fd5b505050565b60606000600161264f8461283c565b01905060008167ffffffffffffffff81111561266e5761266d612e9a565b5b6040519080825280601f01601f1916602001820160405280156126a05781602001600182028036833780820191505090505b509050600082602001820190505b600115612703578080600190039150507f3031323334353637383961626364656600000000000000000000000000000000600a86061a8153600a85816126f7576126f6613ab6565b5b049450600085036126ae575b819350505050919050565b60007f01ffc9a7000000000000000000000000000000000000000000000000000000007bffffffffffffffffffffffffffffffffffffffffffffffffffffffff1916827bffffffffffffffffffffffffffffffffffffffffffffffffffffffff1916149050919050565b61278383838361298f565b61283757600073ffffffffffffffffffffffffffffffffffffffff168373ffffffffffffffffffffffffffffffffffffffff16036127f857806040517f7e2732890000000000000000000000000000000000000000000000000000000081526004016127ef9190612d89565b60405180910390fd5b81816040517f177e802f00000000000000000000000000000000000000000000000000000000815260040161282e9291906133ab565b60405180910390fd5b505050565b600080600090507a184f03e93ff9f4daa797ed6e38ed64bf6a1f010000000000000000831061289a577a184f03e93ff9f4daa797ed6e38ed64bf6a1f01000000000000000083816128905761288f613ab6565b5b0492506040810190505b6d04ee2d6d415b85acef810000000083106128d7576d04ee2d6d415b85acef810000000083816128cd576128cc613ab6565b5b0492506020810190505b662386f26fc10000831061290657662386f26fc1000083816128fc576128fb613ab6565b5b0492506010810190505b6305f5e100831061292f576305f5e100838161292557612924613ab6565b5b0492506008810190505b612710831061295457612710838161294a57612949613ab6565b5b0492506004810190505b60648310612977576064838161296d5761296c613ab6565b5b0492506002810190505b600a8310612986576001810190505b80915050919050565b60008073ffffffffffffffffffffffffffffffffffffffff168373ffffffffffffffffffffffffffffffffffffffff1614158015612a4757508273ffffffffffffffffffffffffffffffffffffffff168473ffffffffffffffffffffffffffffffffffffffff161480612a085750612a078484611016565b5b80612a4657508273ffffffffffffffffffffffffffffffffffffffff16612a2e83611350565b73ffffffffffffffffffffffffffffffffffffffff16145b5b90509392505050565b6000604051905090565b600080fd5b600080fd5b60007fffffffff0000000000000000000000000000000000000000000000000000000082169050919050565b612a9981612a64565b8114612aa457600080fd5b50565b600081359050612ab681612a90565b92915050565b600060208284031215612ad257612ad1612a5a565b5b6000612ae084828501612aa7565b91505092915050565b60008115159050919050565b612afe81612ae9565b82525050565b6000602082019050612b196000830184612af5565b92915050565b600081519050919050565b600082825260208201905092915050565b60005b83811015612b59578082015181840152602081019050612b3e565b60008484015250505050565b6000601f19601f8301169050919050565b6000612b8182612b1f565b612b8b8185612b2a565b9350612b9b818560208601612b3b565b612ba481612b65565b840191505092915050565b60006020820190508181036000830152612bc98184612b76565b905092915050565b6000819050919050565b612be481612bd1565b8114612bef57600080fd5b50565b600081359050612c0181612bdb565b92915050565b600060208284031215612c1d57612c1c612a5a565b5b6000612c2b84828501612bf2565b91505092915050565b600073ffffffffffffffffffffffffffffffffffffffff82169050919050565b6000612c5f82612c34565b9050919050565b612c6f81612c54565b82525050565b6000602082019050612c8a6000830184612c66565b92915050565b612c9981612c54565b8114612ca457600080fd5b50565b600081359050612cb681612c90565b92915050565b60008060408385031215612cd357612cd2612a5a565b5b6000612ce185828601612ca7565b9250506020612cf285828601612bf2565b9150509250929050565b6000612d0782612c34565b9050919050565b612d1781612cfc565b8114612d2257600080fd5b50565b600081359050612d3481612d0e565b92915050565b60008060408385031215612d5157612d50612a5a565b5b6000612d5f85828601612d25565b9250506020612d7085828601612bf2565b9150509250929050565b612d8381612bd1565b82525050565b6000602082019050612d9e6000830184612d7a565b92915050565b600080600060608486031215612dbd57612dbc612a5a565b5b6000612dcb86828701612ca7565b9350506020612ddc86828701612ca7565b9250506040612ded86828701612bf2565b9150509250925092565b600060208284031215612e0d57612e0c612a5a565b5b6000612e1b84828501612ca7565b91505092915050565b612e2d81612ae9565b8114612e3857600080fd5b50565b600081359050612e4a81612e24565b92915050565b60008060408385031215612e6757612e66612a5a565b5b6000612e7585828601612ca7565b9250506020612e8685828601612e3b565b9150509250929050565b600080fd5b600080fd5b7f4e487b7100000000000000000000000000000000000000000000000000000000600052604160045260246000fd5b612ed282612b65565b810181811067ffffffffffffffff82111715612ef157612ef0612e9a565b5b80604052505050565b6000612f04612a50565b9050612f108282612ec9565b919050565b600067ffffffffffffffff821115612f3057612f2f612e9a565b5b612f3982612b65565b9050602081019050919050565b82818337600083830152505050565b6000612f68612f6384612f15565b612efa565b905082815260208101848484011115612f8457612f83612e95565b5b612f8f848285612f46565b509392505050565b600082601f830112612fac57612fab612e90565b5b8135612fbc848260208601612f55565b91505092915050565b60008060008060808587031215612fdf57612fde612a5a565b5b6000612fed87828801612ca7565b9450506020612ffe87828801612ca7565b935050604061300f87828801612bf2565b925050606085013567ffffffffffffffff8111156130305761302f612a5f565b5b61303c87828801612f97565b91505092959194509250565b600080fd5b600080fd5b60008083601f84011261306857613067612e90565b5b8235905067ffffffffffffffff81111561308557613084613048565b5b6020830191508360018202830111156130a1576130a061304d565b5b9250929050565b600080600080606085870312156130c2576130c1612a5a565b5b60006130d087828801612ca7565b945050602085013567ffffffffffffffff8111156130f1576130f0612a5f565b5b6130fd87828801613052565b9350935050604061311087828801612bf2565b91505092959194509250565b6000806040838503121561313357613132612a5a565b5b600061314185828601612ca7565b925050602061315285828601612ca7565b9150509250929050565b600081519050919050565b600082825260208201905092915050565b6000819050602082019050919050565b61319181612bd1565b82525050565b60006131a38383613188565b60208301905092915050565b6000602082019050919050565b60006131c78261315c565b6131d18185613167565b93506131dc83613178565b8060005b8381101561320d5781516131f48882613197565b97506131ff836131af565b9250506001810190506131e0565b5085935050505092915050565b6000602082019050818103600083015261323481846131bc565b905092915050565b7f4e487b7100000000000000000000000000000000000000000000000000000000600052602260045260246000fd5b6000600282049050600182168061328357607f821691505b6020821081036132965761329561323c565b5b50919050565b7f506c65617365207061792074686520636f727265637420616d6f756e74000000600082015250565b60006132d2601d83612b2a565b91506132dd8261329c565b602082019050919050565b60006020820190508181036000830152613301816132c5565b9050919050565b7f4d6178696d756d207469636b657473207265616368656420666f722075736572600082015250565b600061333e602083612b2a565b915061334982613308565b602082019050919050565b6000602082019050818103600083015261336d81613331565b9050919050565b60006060820190506133896000830186612c66565b6133966020830185612d7a565b6133a36040830184612c66565b949350505050565b60006040820190506133c06000830185612c66565b6133cd6020830184612d7a565b9392505050565b7f4e487b7100000000000000000000000000000000000000000000000000000000600052603260045260246000fd5b7f4e487b7100000000000000000000000000000000000000000000000000000000600052601160045260246000fd5b600061343d82612bd1565b915061344883612bd1565b925082820261345681612bd1565b9150828204841483151761346d5761346c613403565b5b5092915050565b7f457863656564656420676173207072696365204c696d69740000000000000000600082015250565b60006134aa601883612b2a565b91506134b582613474565b602082019050919050565b600060208201905081810360008301526134d98161349d565b9050919050565b7f4e6f7420656e6f75676820657468657200000000000000000000000000000000600082015250565b6000613516601083612b2a565b9150613521826134e0565b602082019050919050565b6000602082019050818103600083015261354581613509565b9050919050565b600061355782612bd1565b91507fffffffffffffffffffffffffffffffffffffffffffffffffffffffffffffffff820361358957613588613403565b5b600182019050919050565b7f4d696e74696e6720686173206e6f74206265656e20656e61626c656421000000600082015250565b60006135ca601d83612b2a565b91506135d582613594565b602082019050919050565b600060208201905081810360008301526135f9816135bd565b9050919050565b7f416c6c20617661696c61626c65207469636b6574732068617665206265656e2060008201527f6d696e7465640000000000000000000000000000000000000000000000000000602082015250565b600061365c602683612b2a565b915061366782613600565b604082019050919050565b6000602082019050818103600083015261368b8161364f565b9050919050565b600081519050919050565b600082825260208201905092915050565b60006136b982613692565b6136c3818561369d565b93506136d3818560208601612b3b565b6136dc81612b65565b840191505092915050565b60006080820190506136fc6000830187612c66565b6137096020830186612c66565b6137166040830185612d7a565b818103606083015261372881846136ae565b905095945050505050565b60008151905061374281612a90565b92915050565b60006020828403121561375e5761375d612a5a565b5b600061376c84828501613733565b91505092915050565b60008190508160005260206000209050919050565b60006020601f8301049050919050565b600082821b905092915050565b6000600883026137d77fffffffffffffffffffffffffffffffffffffffffffffffffffffffffffffffff8261379a565b6137e1868361379a565b95508019841693508086168417925050509392505050565b6000819050919050565b600061381e61381961381484612bd1565b6137f9565b612bd1565b9050919050565b6000819050919050565b61383883613803565b61384c61384482613825565b8484546137a7565b825550505050565b600090565b613861613854565b61386c81848461382f565b505050565b5b8181101561389057613885600082613859565b600181019050613872565b5050565b601f8211156138d5576138a681613775565b6138af8461378a565b810160208510156138be578190505b6138d26138ca8561378a565b830182613871565b50505b505050565b600082821c905092915050565b60006138f8600019846008026138da565b1980831691505092915050565b600061391183836138e7565b9150826002028217905092915050565b61392a82612b1f565b67ffffffffffffffff81111561394357613942612e9a565b5b61394d825461326b565b613958828285613894565b600060209050601f83116001811461398b5760008415613979578287015190505b6139838582613905565b8655506139eb565b601f19841661399986613775565b60005b828110156139c15784890151825560018201915060208501945060208101905061399c565b868310156139de57848901516139da601f8916826138e7565b8355505b6001600288020188555050505b505050505050565b600081905092915050565b6000613a0982612b1f565b613a1381856139f3565b9350613a23818560208601612b3b565b80840191505092915050565b6000613a3b82856139fe565b9150613a4782846139fe565b91508190509392505050565b6000613a5e82612bd1565b9150613a6983612bd1565b9250828203905081811115613a8157613a80613403565b5b92915050565b7f4e487b7100000000000000000000000000000000000000000000000000000000600052603160045260246000fd5b7f4e487b7100000000000000000000000000000000000000000000000000000000600052601260045260246000fdfea264697066735822122073aaf8f98fe57a49c163e679d80c573adfbb733a764e80b0f7fa66ff83ae44d464736f6c63430008140033",
  "linkReferences": {},
  "deployedLinkReferences": {}
}