{
  "_format": "hh-sol-artifact-1",
  "contractName": "Nftickets",
  "sourceName": "contracts/sample_nft_ticket.sol",
  "abi": [
    {
      "inputs": [
        {
          "internalType": "address",
          "name": "initialOwner",
          "type": "address"
        }
      ],
      "stateMutability": "nonpayable",
      "type": "constructor"
    },
    {
      "inputs": [],
      "name": "ERC721EnumerableForbiddenBatchMint",
      "type": "error"
    },
    {
      "inputs": [
        {
          "internalType": "address",
          "name": "sender",
          "type": "address"
        },
        {
          "internalType": "uint256",
          "name": "tokenId",
          "type": "uint256"
        },
        {
          "internalType": "address",
          "name": "owner",
          "type": "address"
        }
      ],
      "name": "ERC721IncorrectOwner",
      "type": "error"
    },
    {
      "inputs": [
        {
          "internalType": "address",
          "name": "operator",
          "type": "address"
        },
        {
          "internalType": "uint256",
          "name": "tokenId",
          "type": "uint256"
        }
      ],
      "name": "ERC721InsufficientApproval",
      "type": "error"
    },
    {
      "inputs": [
        {
          "internalType": "address",
          "name": "approver",
          "type": "address"
        }
      ],
      "name": "ERC721InvalidApprover",
      "type": "error"
    },
    {
      "inputs": [
        {
          "internalType": "address",
          "name": "operator",
          "type": "address"
        }
      ],
      "name": "ERC721InvalidOperator",
      "type": "error"
    },
    {
      "inputs": [
        {
          "internalType": "address",
          "name": "owner",
          "type": "address"
        }
      ],
      "name": "ERC721InvalidOwner",
      "type": "error"
    },
    {
      "inputs": [
        {
          "internalType": "address",
          "name": "receiver",
          "type": "address"
        }
      ],
      "name": "ERC721InvalidReceiver",
      "type": "error"
    },
    {
      "inputs": [
        {
          "internalType": "address",
          "name": "sender",
          "type": "address"
        }
      ],
      "name": "ERC721InvalidSender",
      "type": "error"
    },
    {
      "inputs": [
        {
          "internalType": "uint256",
          "name": "tokenId",
          "type": "uint256"
        }
      ],
      "name": "ERC721NonexistentToken",
      "type": "error"
    },
    {
      "inputs": [
        {
          "internalType": "address",
          "name": "owner",
          "type": "address"
        },
        {
          "internalType": "uint256",
          "name": "index",
          "type": "uint256"
        }
      ],
      "name": "ERC721OutOfBoundsIndex",
      "type": "error"
    },
    {
      "inputs": [
        {
          "internalType": "address",
          "name": "owner",
          "type": "address"
        }
      ],
      "name": "OwnableInvalidOwner",
      "type": "error"
    },
    {
      "inputs": [
        {
          "internalType": "address",
          "name": "account",
          "type": "address"
        }
      ],
      "name": "OwnableUnauthorizedAccount",
      "type": "error"
    },
    {
      "inputs": [],
      "name": "ReentrancyGuardReentrantCall",
      "type": "error"
    },
    {
      "anonymous": false,
      "inputs": [
        {
          "indexed": true,
          "internalType": "address",
          "name": "owner",
          "type": "address"
        },
        {
          "indexed": true,
          "internalType": "address",
          "name": "approved",
          "type": "address"
        },
        {
          "indexed": true,
          "internalType": "uint256",
          "name": "tokenId",
          "type": "uint256"
        }
      ],
      "name": "Approval",
      "type": "event"
    },
    {
      "anonymous": false,
      "inputs": [
        {
          "indexed": true,
          "internalType": "address",
          "name": "owner",
          "type": "address"
        },
        {
          "indexed": true,
          "internalType": "address",
          "name": "operator",
          "type": "address"
        },
        {
          "indexed": false,
          "internalType": "bool",
          "name": "approved",
          "type": "bool"
        }
      ],
      "name": "ApprovalForAll",
      "type": "event"
    },
    {
      "anonymous": false,
      "inputs": [
        {
          "indexed": false,
          "internalType": "uint256",
          "name": "_fromTokenId",
          "type": "uint256"
        },
        {
          "indexed": false,
          "internalType": "uint256",
          "name": "_toTokenId",
          "type": "uint256"
        }
      ],
      "name": "BatchMetadataUpdate",
      "type": "event"
    },
    {
      "anonymous": false,
      "inputs": [
        {
          "indexed": false,
          "internalType": "uint256",
          "name": "_tokenId",
          "type": "uint256"
        }
      ],
      "name": "MetadataUpdate",
      "type": "event"
    },
    {
      "anonymous": false,
      "inputs": [
        {
          "indexed": true,
          "internalType": "address",
          "name": "previousOwner",
          "type": "address"
        },
        {
          "indexed": true,
          "internalType": "address",
          "name": "newOwner",
          "type": "address"
        }
      ],
      "name": "OwnershipTransferred",
      "type": "event"
    },
    {
      "anonymous": false,
      "inputs": [
        {
          "indexed": true,
          "internalType": "address",
          "name": "from",
          "type": "address"
        },
        {
          "indexed": true,
          "internalType": "address",
          "name": "to",
          "type": "address"
        },
        {
          "indexed": true,
          "internalType": "uint256",
          "name": "tokenId",
          "type": "uint256"
        }
      ],
      "name": "Transfer",
      "type": "event"
    },
    {
      "inputs": [],
      "name": "MAX_SUPPLY",
      "outputs": [
        {
          "internalType": "uint256",
          "name": "",
          "type": "uint256"
        }
      ],
      "stateMutability": "view",
      "type": "function"
    },
    {
      "inputs": [
        {
          "internalType": "address",
          "name": "to",
          "type": "address"
        },
        {
          "internalType": "uint256",
          "name": "tokenId",
          "type": "uint256"
        }
      ],
      "name": "approve",
      "outputs": [],
      "stateMutability": "nonpayable",
      "type": "function"
    },
    {
      "inputs": [
        {
          "internalType": "address",
          "name": "owner",
          "type": "address"
        }
      ],
      "name": "balanceOf",
      "outputs": [
        {
          "internalType": "uint256",
          "name": "",
          "type": "uint256"
        }
      ],
      "stateMutability": "view",
      "type": "function"
    },
    {
      "inputs": [
        {
          "internalType": "address",
          "name": "addr",
          "type": "address"
        }
      ],
      "name": "getAddressInfo",
      "outputs": [
        {
          "internalType": "uint256[]",
          "name": "",
          "type": "uint256[]"
        }
      ],
      "stateMutability": "view",
      "type": "function"
    },
    {
      "inputs": [
        {
          "internalType": "uint256",
          "name": "tokenId",
          "type": "uint256"
        }
      ],
      "name": "getApproved",
      "outputs": [
        {
          "internalType": "address",
          "name": "",
          "type": "address"
        }
      ],
      "stateMutability": "view",
      "type": "function"
    },
    {
      "inputs": [
        {
          "internalType": "address",
          "name": "owner",
          "type": "address"
        },
        {
          "internalType": "address",
          "name": "operator",
          "type": "address"
        }
      ],
      "name": "isApprovedForAll",
      "outputs": [
        {
          "internalType": "bool",
          "name": "",
          "type": "bool"
        }
      ],
      "stateMutability": "view",
      "type": "function"
    },
    {
      "inputs": [],
      "name": "isMintEnabled",
      "outputs": [
        {
          "internalType": "bool",
          "name": "",
          "type": "bool"
        }
      ],
      "stateMutability": "view",
      "type": "function"
    },
    {
      "inputs": [],
      "name": "mintPrice",
      "outputs": [
        {
          "internalType": "uint256",
          "name": "",
          "type": "uint256"
        }
      ],
      "stateMutability": "view",
      "type": "function"
    },
    {
      "inputs": [
        {
          "internalType": "address",
          "name": "",
          "type": "address"
        }
      ],
      "name": "mintedWallets",
      "outputs": [
        {
          "internalType": "uint256",
          "name": "minted",
          "type": "uint256"
        }
      ],
      "stateMutability": "view",
      "type": "function"
    },
    {
      "inputs": [],
      "name": "name",
      "outputs": [
        {
          "internalType": "string",
          "name": "",
          "type": "string"
        }
      ],
      "stateMutability": "view",
      "type": "function"
    },
    {
      "inputs": [],
      "name": "owner",
      "outputs": [
        {
          "internalType": "address",
          "name": "",
          "type": "address"
        }
      ],
      "stateMutability": "view",
      "type": "function"
    },
    {
      "inputs": [
        {
          "internalType": "uint256",
          "name": "tokenId",
          "type": "uint256"
        }
      ],
      "name": "ownerOf",
      "outputs": [
        {
          "internalType": "address",
          "name": "",
          "type": "address"
        }
      ],
      "stateMutability": "view",
      "type": "function"
    },
    {
      "inputs": [],
      "name": "renounceOwnership",
      "outputs": [],
      "stateMutability": "nonpayable",
      "type": "function"
    },
    {
      "inputs": [
        {
          "internalType": "address",
          "name": "to",
          "type": "address"
        },
        {
          "internalType": "string",
          "name": "uri",
          "type": "string"
        }
      ],
      "name": "safeMint",
      "outputs": [
        {
          "internalType": "uint256",
          "name": "",
          "type": "uint256"
        }
      ],
      "stateMutability": "payable",
      "type": "function"
    },
    {
      "inputs": [
        {
          "internalType": "address",
          "name": "from",
          "type": "address"
        },
        {
          "internalType": "address",
          "name": "to",
          "type": "address"
        },
        {
          "internalType": "uint256",
          "name": "tokenId",
          "type": "uint256"
        }
      ],
      "name": "safeTransferFrom",
      "outputs": [],
      "stateMutability": "nonpayable",
      "type": "function"
    },
    {
      "inputs": [
        {
          "internalType": "address",
          "name": "from",
          "type": "address"
        },
        {
          "internalType": "address",
          "name": "to",
          "type": "address"
        },
        {
          "internalType": "uint256",
          "name": "tokenId",
          "type": "uint256"
        },
        {
          "internalType": "bytes",
          "name": "data",
          "type": "bytes"
        }
      ],
      "name": "safeTransferFrom",
      "outputs": [],
      "stateMutability": "nonpayable",
      "type": "function"
    },
    {
      "inputs": [
        {
          "internalType": "address",
          "name": "operator",
          "type": "address"
        },
        {
          "internalType": "bool",
          "name": "approved",
          "type": "bool"
        }
      ],
      "name": "setApprovalForAll",
      "outputs": [],
      "stateMutability": "nonpayable",
      "type": "function"
    },
    {
      "inputs": [
        {
          "internalType": "uint256",
          "name": "max_supply",
          "type": "uint256"
        }
      ],
      "name": "setMaxSupply",
      "outputs": [],
      "stateMutability": "nonpayable",
      "type": "function"
    },
    {
      "inputs": [
        {
          "internalType": "uint256",
          "name": "mint_price",
          "type": "uint256"
        }
      ],
      "name": "setmintPrice",
      "outputs": [],
      "stateMutability": "nonpayable",
      "type": "function"
    },
    {
      "inputs": [
        {
          "internalType": "bytes4",
          "name": "interfaceId",
          "type": "bytes4"
        }
      ],
      "name": "supportsInterface",
      "outputs": [
        {
          "internalType": "bool",
          "name": "",
          "type": "bool"
        }
      ],
      "stateMutability": "view",
      "type": "function"
    },
    {
      "inputs": [],
      "name": "symbol",
      "outputs": [
        {
          "internalType": "string",
          "name": "",
          "type": "string"
        }
      ],
      "stateMutability": "view",
      "type": "function"
    },
    {
      "inputs": [],
      "name": "toggleMintEnabled",
      "outputs": [],
      "stateMutability": "nonpayable",
      "type": "function"
    },
    {
      "inputs": [
        {
          "internalType": "uint256",
          "name": "index",
          "type": "uint256"
        }
      ],
      "name": "tokenByIndex",
      "outputs": [
        {
          "internalType": "uint256",
          "name": "",
          "type": "uint256"
        }
      ],
      "stateMutability": "view",
      "type": "function"
    },
    {
      "inputs": [
        {
          "internalType": "address",
          "name": "owner",
          "type": "address"
        },
        {
          "internalType": "uint256",
          "name": "index",
          "type": "uint256"
        }
      ],
      "name": "tokenOfOwnerByIndex",
      "outputs": [
        {
          "internalType": "uint256",
          "name": "",
          "type": "uint256"
        }
      ],
      "stateMutability": "view",
      "type": "function"
    },
    {
      "inputs": [
        {
          "internalType": "uint256",
          "name": "tokenId",
          "type": "uint256"
        }
      ],
      "name": "tokenURI",
      "outputs": [
        {
          "internalType": "string",
          "name": "",
          "type": "string"
        }
      ],
      "stateMutability": "view",
      "type": "function"
    },
    {
      "inputs": [],
      "name": "totalSupply",
      "outputs": [
        {
          "internalType": "uint256",
          "name": "",
          "type": "uint256"
        }
      ],
      "stateMutability": "view",
      "type": "function"
    },
    {
      "inputs": [
        {
          "internalType": "address",
          "name": "from",
          "type": "address"
        },
        {
          "internalType": "address",
          "name": "to",
          "type": "address"
        },
        {
          "internalType": "uint256",
          "name": "tokenId",
          "type": "uint256"
        }
      ],
      "name": "transferFrom",
      "outputs": [],
      "stateMutability": "nonpayable",
      "type": "function"
    },
    {
      "inputs": [
        {
          "internalType": "address",
          "name": "newOwner",
          "type": "address"
        }
      ],
      "name": "transferOwnership",
      "outputs": [],
      "stateMutability": "nonpayable",
      "type": "function"
    },
    {
      "inputs": [
        {
          "internalType": "address payable",
          "name": "from",
          "type": "address"
        },
        {
          "internalType": "uint256",
          "name": "tokenId",
          "type": "uint256"
        }
      ],
      "name": "transferToken",
      "outputs": [
        {
          "internalType": "uint256",
          "name": "",
          "type": "uint256"
        }
      ],
      "stateMutability": "payable",
      "type": "function"
    }
  ],
  "bytecode": "0x60806040526000600d556000600f553480156200001b57600080fd5b506040516200431b3803806200431b83398181016040528101906200004191906200029a565b806040518060400160405280600881526020017f6e667469636b65740000000000000000000000000000000000000000000000008152506040518060400160405280600381526020017f4e544b00000000000000000000000000000000000000000000000000000000008152508160009081620000bf919062000546565b508060019081620000d1919062000546565b505050600073ffffffffffffffffffffffffffffffffffffffff168173ffffffffffffffffffffffffffffffffffffffff1603620001495760006040517f1e4fbdf70000000000000000000000000000000000000000000000000000000081526004016200014091906200063e565b60405180910390fd5b6200015a816200016a60201b60201c565b506001600c81905550506200065b565b6000600b60009054906101000a900473ffffffffffffffffffffffffffffffffffffffff16905081600b60006101000a81548173ffffffffffffffffffffffffffffffffffffffff021916908373ffffffffffffffffffffffffffffffffffffffff1602179055508173ffffffffffffffffffffffffffffffffffffffff168173ffffffffffffffffffffffffffffffffffffffff167f8be0079c531659141344cd1fd0a4f28419497f9722a3daafe3b4186f6b6457e060405160405180910390a35050565b600080fd5b600073ffffffffffffffffffffffffffffffffffffffff82169050919050565b6000620002628262000235565b9050919050565b620002748162000255565b81146200028057600080fd5b50565b600081519050620002948162000269565b92915050565b600060208284031215620002b357620002b262000230565b5b6000620002c38482850162000283565b91505092915050565b600081519050919050565b7f4e487b7100000000000000000000000000000000000000000000000000000000600052604160045260246000fd5b7f4e487b7100000000000000000000000000000000000000000000000000000000600052602260045260246000fd5b600060028204905060018216806200034e57607f821691505b60208210810362000364576200036362000306565b5b50919050565b60008190508160005260206000209050919050565b60006020601f8301049050919050565b600082821b905092915050565b600060088302620003ce7fffffffffffffffffffffffffffffffffffffffffffffffffffffffffffffffff826200038f565b620003da86836200038f565b95508019841693508086168417925050509392505050565b6000819050919050565b6000819050919050565b600062000427620004216200041b84620003f2565b620003fc565b620003f2565b9050919050565b6000819050919050565b620004438362000406565b6200045b62000452826200042e565b8484546200039c565b825550505050565b600090565b6200047262000463565b6200047f81848462000438565b505050565b5b81811015620004a7576200049b60008262000468565b60018101905062000485565b5050565b601f821115620004f657620004c0816200036a565b620004cb846200037f565b81016020851015620004db578190505b620004f3620004ea856200037f565b83018262000484565b50505b505050565b600082821c905092915050565b60006200051b60001984600802620004fb565b1980831691505092915050565b600062000536838362000508565b9150826002028217905092915050565b6200055182620002cc565b67ffffffffffffffff8111156200056d576200056c620002d7565b5b62000579825462000335565b62000586828285620004ab565b600060209050601f831160018114620005be5760008415620005a9578287015190505b620005b5858262000528565b86555062000625565b601f198416620005ce866200036a565b60005b82811015620005f857848901518255600182019150602085019450602081019050620005d1565b8683101562000618578489015162000614601f89168262000508565b8355505b6001600288020188555050505b505050505050565b620006388162000255565b82525050565b60006020820190506200065560008301846200062d565b92915050565b613cb0806200066b6000396000f3fe6080604052600436106101c25760003560e01c80636817c76c116100f7578063ada7c4ed11610095578063d204c45e11610064578063d204c45e14610659578063e985e9c514610689578063ebb00796146106c6578063f2fde38b14610703576101c2565b8063ada7c4ed1461058d578063b488cf18146105ca578063b88d4fde146105f3578063c87b56dd1461061c576101c2565b8063715018a6116100d1578063715018a6146104f75780638da5cb5b1461050e57806395d89b4114610539578063a22cb46514610564576101c2565b80636817c76c146104665780636f8b44b01461049157806370a08231146104ba576101c2565b80632f745c591161016457806342842e0e1161013e57806342842e0e146103ac5780634f6ccce7146103d557806361f5baeb146104125780636352211e14610429576101c2565b80632f745c591461031957806332cb6b0c14610356578063346de50a14610381576101c2565b8063095ea7b3116101a0578063095ea7b31461026c5780631072cbea1461029557806318160ddd146102c557806323b872dd146102f0576101c2565b806301ffc9a7146101c757806306fdde0314610204578063081812fc1461022f575b600080fd5b3480156101d357600080fd5b506101ee60048036038101906101e99190612d0e565b61072c565b6040516101fb9190612d56565b60405180910390f35b34801561021057600080fd5b5061021961073e565b6040516102269190612e01565b60405180910390f35b34801561023b57600080fd5b5061025660048036038101906102519190612e59565b6107d0565b6040516102639190612ec7565b60405180910390f35b34801561027857600080fd5b50610293600480360381019061028e9190612f0e565b6107ec565b005b6102af60048036038101906102aa9190612f8c565b610802565b6040516102bc9190612fdb565b60405180910390f35b3480156102d157600080fd5b506102da610936565b6040516102e79190612fdb565b60405180910390f35b3480156102fc57600080fd5b5061031760048036038101906103129190612ff6565b610943565b005b34801561032557600080fd5b50610340600480360381019061033b9190612f0e565b610a45565b60405161034d9190612fdb565b60405180910390f35b34801561036257600080fd5b5061036b610aee565b6040516103789190612fdb565b60405180910390f35b34801561038d57600080fd5b50610396610af4565b6040516103a39190612d56565b60405180910390f35b3480156103b857600080fd5b506103d360048036038101906103ce9190612ff6565b610b07565b005b3480156103e157600080fd5b506103fc60048036038101906103f79190612e59565b610b27565b6040516104099190612fdb565b60405180910390f35b34801561041e57600080fd5b50610427610b9d565b005b34801561043557600080fd5b50610450600480360381019061044b9190612e59565b610bd1565b60405161045d9190612ec7565b60405180910390f35b34801561047257600080fd5b5061047b610be3565b6040516104889190612fdb565b60405180910390f35b34801561049d57600080fd5b506104b860048036038101906104b39190612e59565b610be9565b005b3480156104c657600080fd5b506104e160048036038101906104dc9190613049565b610bfb565b6040516104ee9190612fdb565b60405180910390f35b34801561050357600080fd5b5061050c610cb5565b005b34801561051a57600080fd5b50610523610cc9565b6040516105309190612ec7565b60405180910390f35b34801561054557600080fd5b5061054e610cf3565b60405161055b9190612e01565b60405180910390f35b34801561057057600080fd5b5061058b600480360381019061058691906130a2565b610d85565b005b34801561059957600080fd5b506105b460048036038101906105af9190613049565b610d9b565b6040516105c19190612fdb565b60405180910390f35b3480156105d657600080fd5b506105f160048036038101906105ec9190612e59565b610db9565b005b3480156105ff57600080fd5b5061061a60048036038101906106159190613217565b610dcb565b005b34801561062857600080fd5b50610643600480360381019061063e9190612e59565b610de8565b6040516106509190612e01565b60405180910390f35b610673600480360381019061066e919061333b565b610dfa565b6040516106809190612fdb565b60405180910390f35b34801561069557600080fd5b506106b060048036038101906106ab9190613397565b611002565b6040516106bd9190612d56565b60405180910390f35b3480156106d257600080fd5b506106ed60048036038101906106e89190613049565b611096565b6040516106fa9190613495565b60405180910390f35b34801561070f57600080fd5b5061072a60048036038101906107259190613049565b611130565b005b6000610737826111b6565b9050919050565b60606000805461074d906134e6565b80601f0160208091040260200160405190810160405280929190818152602001828054610779906134e6565b80156107c65780601f1061079b576101008083540402835291602001916107c6565b820191906000526020600020905b8154815290600101906020018083116107a957829003601f168201915b5050505050905090565b60006107db82611217565b506107e58261129f565b9050919050565b6107fe82826107f96112dc565b6112e4565b5050565b600061080c6112f6565b600d543414610850576040517f08c379a000000000000000000000000000000000000000000000000000000000815260040161084790613563565b60405180910390fd5b61086b8333846040518060200160405280600081525061133c565b8273ffffffffffffffffffffffffffffffffffffffff166108fc349081150290604051600060405180830381858888f193505050501580156108b1573d6000803e3d6000fd5b506108bc8383611359565b601060003373ffffffffffffffffffffffffffffffffffffffff1673ffffffffffffffffffffffffffffffffffffffff1681526020019081526020016000206001018290806001815401808255809150506001900390600052602060002001600090919091909150558190506109306115d5565b92915050565b6000600880549050905090565b600073ffffffffffffffffffffffffffffffffffffffff168273ffffffffffffffffffffffffffffffffffffffff16036109b55760006040517f64a0ae920000000000000000000000000000000000000000000000000000000081526004016109ac9190612ec7565b60405180910390fd5b60006109c983836109c46112dc565b6115df565b90508373ffffffffffffffffffffffffffffffffffffffff168173ffffffffffffffffffffffffffffffffffffffff1614610a3f578382826040517f64283d7b000000000000000000000000000000000000000000000000000000008152600401610a3693929190613583565b60405180910390fd5b50505050565b6000610a5083610bfb565b8210610a955782826040517fa57d13dc000000000000000000000000000000000000000000000000000000008152600401610a8c9291906135ba565b60405180910390fd5b600660008473ffffffffffffffffffffffffffffffffffffffff1673ffffffffffffffffffffffffffffffffffffffff168152602001908152602001600020600083815260200190815260200160002054905092915050565b600f5481565b601160009054906101000a900460ff1681565b610b2283838360405180602001604052806000815250610dcb565b505050565b6000610b31610936565b8210610b77576000826040517fa57d13dc000000000000000000000000000000000000000000000000000000008152600401610b6e9291906135ba565b60405180910390fd5b60088281548110610b8b57610b8a6135e3565b5b90600052602060002001549050919050565b610ba56115f5565b601160009054906101000a900460ff1615601160006101000a81548160ff021916908315150217905550565b6000610bdc82611217565b9050919050565b600d5481565b610bf16115f5565b80600f8190555050565b60008073ffffffffffffffffffffffffffffffffffffffff168273ffffffffffffffffffffffffffffffffffffffff1603610c6e5760006040517f89c62b64000000000000000000000000000000000000000000000000000000008152600401610c659190612ec7565b60405180910390fd5b600360008373ffffffffffffffffffffffffffffffffffffffff1673ffffffffffffffffffffffffffffffffffffffff168152602001908152602001600020549050919050565b610cbd6115f5565b610cc7600061167c565b565b6000600b60009054906101000a900473ffffffffffffffffffffffffffffffffffffffff16905090565b606060018054610d02906134e6565b80601f0160208091040260200160405190810160405280929190818152602001828054610d2e906134e6565b8015610d7b5780601f10610d5057610100808354040283529160200191610d7b565b820191906000526020600020905b815481529060010190602001808311610d5e57829003601f168201915b5050505050905090565b610d97610d906112dc565b8383611742565b5050565b60106020528060005260406000206000915090508060000154905081565b610dc16115f5565b80600d8190555050565b610dd6848484610943565b610de2848484846118b1565b50505050565b6060610df382611a68565b9050919050565b600080600e6000815480929190610e1090613641565b919050559050600f548110610e5a576040517f08c379a0000000000000000000000000000000000000000000000000000000008152600401610e51906136fb565b60405180910390fd5b6006601060008673ffffffffffffffffffffffffffffffffffffffff1673ffffffffffffffffffffffffffffffffffffffff1681526020019081526020016000206000015410610edf576040517f08c379a0000000000000000000000000000000000000000000000000000000008152600401610ed690613767565b60405180910390fd5b600d543414610f23576040517f08c379a0000000000000000000000000000000000000000000000000000000008152600401610f1a906137d3565b60405180910390fd5b601060008573ffffffffffffffffffffffffffffffffffffffff1673ffffffffffffffffffffffffffffffffffffffff1681526020019081526020016000206000016000815480929190610f7690613641565b9190505550601060008573ffffffffffffffffffffffffffffffffffffffff1673ffffffffffffffffffffffffffffffffffffffff168152602001908152602001600020600101819080600181540180825580915050600190039060005260206000200160009091909190915055610fee8482611b7b565b610ff88184611b99565b8091505092915050565b6000600560008473ffffffffffffffffffffffffffffffffffffffff1673ffffffffffffffffffffffffffffffffffffffff16815260200190815260200160002060008373ffffffffffffffffffffffffffffffffffffffff1673ffffffffffffffffffffffffffffffffffffffff16815260200190815260200160002060009054906101000a900460ff16905092915050565b6060601060008373ffffffffffffffffffffffffffffffffffffffff1673ffffffffffffffffffffffffffffffffffffffff16815260200190815260200160002060010180548060200260200160405190810160405280929190818152602001828054801561112457602002820191906000526020600020905b815481526020019060010190808311611110575b50505050509050919050565b6111386115f5565b600073ffffffffffffffffffffffffffffffffffffffff168173ffffffffffffffffffffffffffffffffffffffff16036111aa5760006040517f1e4fbdf70000000000000000000000000000000000000000000000000000000081526004016111a19190612ec7565b60405180910390fd5b6111b38161167c565b50565b6000634906490660e01b7bffffffffffffffffffffffffffffffffffffffffffffffffffffffff1916827bffffffffffffffffffffffffffffffffffffffffffffffffffffffff19161480611210575061120f82611bf5565b5b9050919050565b60008061122383611c6f565b9050600073ffffffffffffffffffffffffffffffffffffffff168173ffffffffffffffffffffffffffffffffffffffff160361129657826040517f7e27328900000000000000000000000000000000000000000000000000000000815260040161128d9190612fdb565b60405180910390fd5b80915050919050565b60006004600083815260200190815260200160002060009054906101000a900473ffffffffffffffffffffffffffffffffffffffff169050919050565b600033905090565b6112f18383836001611cac565b505050565b6002600c5403611332576040517f3ee5aeb500000000000000000000000000000000000000000000000000000000815260040160405180910390fd5b6002600c81905550565b611347848484611e71565b611353848484846118b1565b50505050565b60005b601060008473ffffffffffffffffffffffffffffffffffffffff1673ffffffffffffffffffffffffffffffffffffffff168152602001908152602001600020600101805490508110156115cf5781601060008573ffffffffffffffffffffffffffffffffffffffff1673ffffffffffffffffffffffffffffffffffffffff16815260200190815260200160002060010182815481106113fe576113fd6135e3565b5b9060005260206000200154036115bc5760008190505b6001601060008673ffffffffffffffffffffffffffffffffffffffff1673ffffffffffffffffffffffffffffffffffffffff1681526020019081526020016000206001018054905061146691906137f3565b81101561154d57601060008573ffffffffffffffffffffffffffffffffffffffff1673ffffffffffffffffffffffffffffffffffffffff1681526020019081526020016000206001016001826114bc9190613827565b815481106114cd576114cc6135e3565b5b9060005260206000200154601060008673ffffffffffffffffffffffffffffffffffffffff1673ffffffffffffffffffffffffffffffffffffffff168152602001908152602001600020600101828154811061152c5761152b6135e3565b5b9060005260206000200181905550808061154590613641565b915050611414565b50601060008473ffffffffffffffffffffffffffffffffffffffff1673ffffffffffffffffffffffffffffffffffffffff1681526020019081526020016000206001018054806115a05761159f61385b565b5b60019003818190600052602060002001600090559055506115d1565b80806115c790613641565b91505061135c565b505b5050565b6001600c81905550565b60006115ec848484611fde565b90509392505050565b6115fd6112dc565b73ffffffffffffffffffffffffffffffffffffffff1661161b610cc9565b73ffffffffffffffffffffffffffffffffffffffff161461167a5761163e6112dc565b6040517f118cdaa70000000000000000000000000000000000000000000000000000000081526004016116719190612ec7565b60405180910390fd5b565b6000600b60009054906101000a900473ffffffffffffffffffffffffffffffffffffffff16905081600b60006101000a81548173ffffffffffffffffffffffffffffffffffffffff021916908373ffffffffffffffffffffffffffffffffffffffff1602179055508173ffffffffffffffffffffffffffffffffffffffff168173ffffffffffffffffffffffffffffffffffffffff167f8be0079c531659141344cd1fd0a4f28419497f9722a3daafe3b4186f6b6457e060405160405180910390a35050565b600073ffffffffffffffffffffffffffffffffffffffff168273ffffffffffffffffffffffffffffffffffffffff16036117b357816040517f5b08ba180000000000000000000000000000000000000000000000000000000081526004016117aa9190612ec7565b60405180910390fd5b80600560008573ffffffffffffffffffffffffffffffffffffffff1673ffffffffffffffffffffffffffffffffffffffff16815260200190815260200160002060008473ffffffffffffffffffffffffffffffffffffffff1673ffffffffffffffffffffffffffffffffffffffff16815260200190815260200160002060006101000a81548160ff0219169083151502179055508173ffffffffffffffffffffffffffffffffffffffff168373ffffffffffffffffffffffffffffffffffffffff167f17307eab39ab6107e8899845ad3d59bd9653f200f220920489ca2b5937696c31836040516118a49190612d56565b60405180910390a3505050565b60008373ffffffffffffffffffffffffffffffffffffffff163b1115611a62578273ffffffffffffffffffffffffffffffffffffffff1663150b7a026118f56112dc565b8685856040518563ffffffff1660e01b815260040161191794939291906138df565b6020604051808303816000875af192505050801561195357506040513d601f19601f820116820180604052508101906119509190613940565b60015b6119d7573d8060008114611983576040519150601f19603f3d011682016040523d82523d6000602084013e611988565b606091505b5060008151036119cf57836040517f64a0ae920000000000000000000000000000000000000000000000000000000081526004016119c69190612ec7565b60405180910390fd5b805181602001fd5b63150b7a0260e01b7bffffffffffffffffffffffffffffffffffffffffffffffffffffffff1916817bffffffffffffffffffffffffffffffffffffffffffffffffffffffff191614611a6057836040517f64a0ae92000000000000000000000000000000000000000000000000000000008152600401611a579190612ec7565b60405180910390fd5b505b50505050565b6060611a7382611217565b506000600a60008481526020019081526020016000208054611a94906134e6565b80601f0160208091040260200160405190810160405280929190818152602001828054611ac0906134e6565b8015611b0d5780601f10611ae257610100808354040283529160200191611b0d565b820191906000526020600020905b815481529060010190602001808311611af057829003601f168201915b505050505090506000611b1e6120fb565b90506000815103611b33578192505050611b76565b600082511115611b68578082604051602001611b509291906139a9565b60405160208183030381529060405292505050611b76565b611b7184612112565b925050505b919050565b611b9582826040518060200160405280600081525061217b565b5050565b80600a60008481526020019081526020016000209081611bb99190613b79565b507ff8e1a15aba9398e019f0b49df1a4fde98ee17ae345cb5f6b5e2c27f5033e8ce782604051611be99190612fdb565b60405180910390a15050565b60007f780e9d63000000000000000000000000000000000000000000000000000000007bffffffffffffffffffffffffffffffffffffffffffffffffffffffff1916827bffffffffffffffffffffffffffffffffffffffffffffffffffffffff19161480611c685750611c6782612197565b5b9050919050565b60006002600083815260200190815260200160002060009054906101000a900473ffffffffffffffffffffffffffffffffffffffff169050919050565b8080611ce55750600073ffffffffffffffffffffffffffffffffffffffff168273ffffffffffffffffffffffffffffffffffffffff1614155b15611e19576000611cf584611217565b9050600073ffffffffffffffffffffffffffffffffffffffff168373ffffffffffffffffffffffffffffffffffffffff1614158015611d6057508273ffffffffffffffffffffffffffffffffffffffff168173ffffffffffffffffffffffffffffffffffffffff1614155b8015611d735750611d718184611002565b155b15611db557826040517fa9fbf51f000000000000000000000000000000000000000000000000000000008152600401611dac9190612ec7565b60405180910390fd5b8115611e1757838573ffffffffffffffffffffffffffffffffffffffff168273ffffffffffffffffffffffffffffffffffffffff167f8c5be1e5ebec7d5bd14f71427d1e84f3dd0314c0f7b2291e5b200ac8c7c3b92560405160405180910390a45b505b836004600085815260200190815260200160002060006101000a81548173ffffffffffffffffffffffffffffffffffffffff021916908373ffffffffffffffffffffffffffffffffffffffff16021790555050505050565b600073ffffffffffffffffffffffffffffffffffffffff168273ffffffffffffffffffffffffffffffffffffffff1603611ee35760006040517f64a0ae92000000000000000000000000000000000000000000000000000000008152600401611eda9190612ec7565b60405180910390fd5b6000611ef1838360006115df565b9050600073ffffffffffffffffffffffffffffffffffffffff168173ffffffffffffffffffffffffffffffffffffffff1603611f6457816040517f7e273289000000000000000000000000000000000000000000000000000000008152600401611f5b9190612fdb565b60405180910390fd5b8373ffffffffffffffffffffffffffffffffffffffff168173ffffffffffffffffffffffffffffffffffffffff1614611fd8578382826040517f64283d7b000000000000000000000000000000000000000000000000000000008152600401611fcf93929190613583565b60405180910390fd5b50505050565b600080611fec858585612279565b9050600073ffffffffffffffffffffffffffffffffffffffff168173ffffffffffffffffffffffffffffffffffffffff16036120305761202b84612493565b61206f565b8473ffffffffffffffffffffffffffffffffffffffff168173ffffffffffffffffffffffffffffffffffffffff161461206e5761206d81856124dc565b5b5b600073ffffffffffffffffffffffffffffffffffffffff168573ffffffffffffffffffffffffffffffffffffffff16036120b1576120ac8461263d565b6120f0565b8473ffffffffffffffffffffffffffffffffffffffff168173ffffffffffffffffffffffffffffffffffffffff16146120ef576120ee858561270e565b5b5b809150509392505050565b606060405180602001604052806000815250905090565b606061211d82611217565b5060006121286120fb565b905060008151116121485760405180602001604052806000815250612173565b8061215284612799565b6040516020016121639291906139a9565b6040516020818303038152906040525b915050919050565b6121858383612867565b61219260008484846118b1565b505050565b60007f80ac58cd000000000000000000000000000000000000000000000000000000007bffffffffffffffffffffffffffffffffffffffffffffffffffffffff1916827bffffffffffffffffffffffffffffffffffffffffffffffffffffffff1916148061226257507f5b5e139f000000000000000000000000000000000000000000000000000000007bffffffffffffffffffffffffffffffffffffffffffffffffffffffff1916827bffffffffffffffffffffffffffffffffffffffffffffffffffffffff1916145b80612272575061227182612960565b5b9050919050565b60008061228584611c6f565b9050600073ffffffffffffffffffffffffffffffffffffffff168373ffffffffffffffffffffffffffffffffffffffff16146122c7576122c68184866129ca565b5b600073ffffffffffffffffffffffffffffffffffffffff168173ffffffffffffffffffffffffffffffffffffffff161461235857612309600085600080611cac565b6001600360008373ffffffffffffffffffffffffffffffffffffffff1673ffffffffffffffffffffffffffffffffffffffff168152602001908152602001600020600082825403925050819055505b600073ffffffffffffffffffffffffffffffffffffffff168573ffffffffffffffffffffffffffffffffffffffff16146123db576001600360008773ffffffffffffffffffffffffffffffffffffffff1673ffffffffffffffffffffffffffffffffffffffff168152602001908152602001600020600082825401925050819055505b846002600086815260200190815260200160002060006101000a81548173ffffffffffffffffffffffffffffffffffffffff021916908373ffffffffffffffffffffffffffffffffffffffff160217905550838573ffffffffffffffffffffffffffffffffffffffff168273ffffffffffffffffffffffffffffffffffffffff167fddf252ad1be2c89b69c2b068fc378daa952ba7f163c4a11628f55a4df523b3ef60405160405180910390a4809150509392505050565b6008805490506009600083815260200190815260200160002081905550600881908060018154018082558091505060019003906000526020600020016000909190919091505550565b60006124e783610bfb565b90506000600760008481526020019081526020016000205490508181146125cc576000600660008673ffffffffffffffffffffffffffffffffffffffff1673ffffffffffffffffffffffffffffffffffffffff168152602001908152602001600020600084815260200190815260200160002054905080600660008773ffffffffffffffffffffffffffffffffffffffff1673ffffffffffffffffffffffffffffffffffffffff168152602001908152602001600020600084815260200190815260200160002081905550816007600083815260200190815260200160002081905550505b6007600084815260200190815260200160002060009055600660008573ffffffffffffffffffffffffffffffffffffffff1673ffffffffffffffffffffffffffffffffffffffff16815260200190815260200160002060008381526020019081526020016000206000905550505050565b6000600160088054905061265191906137f3565b9050600060096000848152602001908152602001600020549050600060088381548110612681576126806135e3565b5b9060005260206000200154905080600883815481106126a3576126a26135e3565b5b9060005260206000200181905550816009600083815260200190815260200160002081905550600960008581526020019081526020016000206000905560088054806126f2576126f161385b565b5b6001900381819060005260206000200160009055905550505050565b6000600161271b84610bfb565b61272591906137f3565b905081600660008573ffffffffffffffffffffffffffffffffffffffff1673ffffffffffffffffffffffffffffffffffffffff168152602001908152602001600020600083815260200190815260200160002081905550806007600084815260200190815260200160002081905550505050565b6060600060016127a884612a8e565b01905060008167ffffffffffffffff8111156127c7576127c66130ec565b5b6040519080825280601f01601f1916602001820160405280156127f95781602001600182028036833780820191505090505b509050600082602001820190505b60011561285c578080600190039150507f3031323334353637383961626364656600000000000000000000000000000000600a86061a8153600a85816128505761284f613c4b565b5b04945060008503612807575b819350505050919050565b600073ffffffffffffffffffffffffffffffffffffffff168273ffffffffffffffffffffffffffffffffffffffff16036128d95760006040517f64a0ae920000000000000000000000000000000000000000000000000000000081526004016128d09190612ec7565b60405180910390fd5b60006128e7838360006115df565b9050600073ffffffffffffffffffffffffffffffffffffffff168173ffffffffffffffffffffffffffffffffffffffff161461295b5760006040517f73c6ac6e0000000000000000000000000000000000000000000000000000000081526004016129529190612ec7565b60405180910390fd5b505050565b60007f01ffc9a7000000000000000000000000000000000000000000000000000000007bffffffffffffffffffffffffffffffffffffffffffffffffffffffff1916827bffffffffffffffffffffffffffffffffffffffffffffffffffffffff1916149050919050565b6129d5838383612be1565b612a8957600073ffffffffffffffffffffffffffffffffffffffff168373ffffffffffffffffffffffffffffffffffffffff1603612a4a57806040517f7e273289000000000000000000000000000000000000000000000000000000008152600401612a419190612fdb565b60405180910390fd5b81816040517f177e802f000000000000000000000000000000000000000000000000000000008152600401612a809291906135ba565b60405180910390fd5b505050565b600080600090507a184f03e93ff9f4daa797ed6e38ed64bf6a1f0100000000000000008310612aec577a184f03e93ff9f4daa797ed6e38ed64bf6a1f0100000000000000008381612ae257612ae1613c4b565b5b0492506040810190505b6d04ee2d6d415b85acef81000000008310612b29576d04ee2d6d415b85acef81000000008381612b1f57612b1e613c4b565b5b0492506020810190505b662386f26fc100008310612b5857662386f26fc100008381612b4e57612b4d613c4b565b5b0492506010810190505b6305f5e1008310612b81576305f5e1008381612b7757612b76613c4b565b5b0492506008810190505b6127108310612ba6576127108381612b9c57612b9b613c4b565b5b0492506004810190505b60648310612bc95760648381612bbf57612bbe613c4b565b5b0492506002810190505b600a8310612bd8576001810190505b80915050919050565b60008073ffffffffffffffffffffffffffffffffffffffff168373ffffffffffffffffffffffffffffffffffffffff1614158015612c9957508273ffffffffffffffffffffffffffffffffffffffff168473ffffffffffffffffffffffffffffffffffffffff161480612c5a5750612c598484611002565b5b80612c9857508273ffffffffffffffffffffffffffffffffffffffff16612c808361129f565b73ffffffffffffffffffffffffffffffffffffffff16145b5b90509392505050565b6000604051905090565b600080fd5b600080fd5b60007fffffffff0000000000000000000000000000000000000000000000000000000082169050919050565b612ceb81612cb6565b8114612cf657600080fd5b50565b600081359050612d0881612ce2565b92915050565b600060208284031215612d2457612d23612cac565b5b6000612d3284828501612cf9565b91505092915050565b60008115159050919050565b612d5081612d3b565b82525050565b6000602082019050612d6b6000830184612d47565b92915050565b600081519050919050565b600082825260208201905092915050565b60005b83811015612dab578082015181840152602081019050612d90565b60008484015250505050565b6000601f19601f8301169050919050565b6000612dd382612d71565b612ddd8185612d7c565b9350612ded818560208601612d8d565b612df681612db7565b840191505092915050565b60006020820190508181036000830152612e1b8184612dc8565b905092915050565b6000819050919050565b612e3681612e23565b8114612e4157600080fd5b50565b600081359050612e5381612e2d565b92915050565b600060208284031215612e6f57612e6e612cac565b5b6000612e7d84828501612e44565b91505092915050565b600073ffffffffffffffffffffffffffffffffffffffff82169050919050565b6000612eb182612e86565b9050919050565b612ec181612ea6565b82525050565b6000602082019050612edc6000830184612eb8565b92915050565b612eeb81612ea6565b8114612ef657600080fd5b50565b600081359050612f0881612ee2565b92915050565b60008060408385031215612f2557612f24612cac565b5b6000612f3385828601612ef9565b9250506020612f4485828601612e44565b9150509250929050565b6000612f5982612e86565b9050919050565b612f6981612f4e565b8114612f7457600080fd5b50565b600081359050612f8681612f60565b92915050565b60008060408385031215612fa357612fa2612cac565b5b6000612fb185828601612f77565b9250506020612fc285828601612e44565b9150509250929050565b612fd581612e23565b82525050565b6000602082019050612ff06000830184612fcc565b92915050565b60008060006060848603121561300f5761300e612cac565b5b600061301d86828701612ef9565b935050602061302e86828701612ef9565b925050604061303f86828701612e44565b9150509250925092565b60006020828403121561305f5761305e612cac565b5b600061306d84828501612ef9565b91505092915050565b61307f81612d3b565b811461308a57600080fd5b50565b60008135905061309c81613076565b92915050565b600080604083850312156130b9576130b8612cac565b5b60006130c785828601612ef9565b92505060206130d88582860161308d565b9150509250929050565b600080fd5b600080fd5b7f4e487b7100000000000000000000000000000000000000000000000000000000600052604160045260246000fd5b61312482612db7565b810181811067ffffffffffffffff82111715613143576131426130ec565b5b80604052505050565b6000613156612ca2565b9050613162828261311b565b919050565b600067ffffffffffffffff821115613182576131816130ec565b5b61318b82612db7565b9050602081019050919050565b82818337600083830152505050565b60006131ba6131b584613167565b61314c565b9050828152602081018484840111156131d6576131d56130e7565b5b6131e1848285613198565b509392505050565b600082601f8301126131fe576131fd6130e2565b5b813561320e8482602086016131a7565b91505092915050565b6000806000806080858703121561323157613230612cac565b5b600061323f87828801612ef9565b945050602061325087828801612ef9565b935050604061326187828801612e44565b925050606085013567ffffffffffffffff81111561328257613281612cb1565b5b61328e878288016131e9565b91505092959194509250565b600067ffffffffffffffff8211156132b5576132b46130ec565b5b6132be82612db7565b9050602081019050919050565b60006132de6132d98461329a565b61314c565b9050828152602081018484840111156132fa576132f96130e7565b5b613305848285613198565b509392505050565b600082601f830112613322576133216130e2565b5b81356133328482602086016132cb565b91505092915050565b6000806040838503121561335257613351612cac565b5b600061336085828601612ef9565b925050602083013567ffffffffffffffff81111561338157613380612cb1565b5b61338d8582860161330d565b9150509250929050565b600080604083850312156133ae576133ad612cac565b5b60006133bc85828601612ef9565b92505060206133cd85828601612ef9565b9150509250929050565b600081519050919050565b600082825260208201905092915050565b6000819050602082019050919050565b61340c81612e23565b82525050565b600061341e8383613403565b60208301905092915050565b6000602082019050919050565b6000613442826133d7565b61344c81856133e2565b9350613457836133f3565b8060005b8381101561348857815161346f8882613412565b975061347a8361342a565b92505060018101905061345b565b5085935050505092915050565b600060208201905081810360008301526134af8184613437565b905092915050565b7f4e487b7100000000000000000000000000000000000000000000000000000000600052602260045260246000fd5b600060028204905060018216806134fe57607f821691505b602082108103613511576135106134b7565b5b50919050565b7f506c65617365207061792074686520636f727265637420616d6f756e74000000600082015250565b600061354d601d83612d7c565b915061355882613517565b602082019050919050565b6000602082019050818103600083015261357c81613540565b9050919050565b60006060820190506135986000830186612eb8565b6135a56020830185612fcc565b6135b26040830184612eb8565b949350505050565b60006040820190506135cf6000830185612eb8565b6135dc6020830184612fcc565b9392505050565b7f4e487b7100000000000000000000000000000000000000000000000000000000600052603260045260246000fd5b7f4e487b7100000000000000000000000000000000000000000000000000000000600052601160045260246000fd5b600061364c82612e23565b91507fffffffffffffffffffffffffffffffffffffffffffffffffffffffffffffffff820361367e5761367d613612565b5b600182019050919050565b7f416c6c20617661696c61626c65204e4654732068617665206265656e206d696e60008201527f7465640000000000000000000000000000000000000000000000000000000000602082015250565b60006136e5602383612d7c565b91506136f082613689565b604082019050919050565b60006020820190508181036000830152613714816136d8565b9050919050565b7f4d6178696d756d206d696e74207265616368656420666f722075736572000000600082015250565b6000613751601d83612d7c565b915061375c8261371b565b602082019050919050565b6000602082019050818103600083015261378081613744565b9050919050565b7f57726f6e672076616c7565000000000000000000000000000000000000000000600082015250565b60006137bd600b83612d7c565b91506137c882613787565b602082019050919050565b600060208201905081810360008301526137ec816137b0565b9050919050565b60006137fe82612e23565b915061380983612e23565b925082820390508181111561382157613820613612565b5b92915050565b600061383282612e23565b915061383d83612e23565b925082820190508082111561385557613854613612565b5b92915050565b7f4e487b7100000000000000000000000000000000000000000000000000000000600052603160045260246000fd5b600081519050919050565b600082825260208201905092915050565b60006138b18261388a565b6138bb8185613895565b93506138cb818560208601612d8d565b6138d481612db7565b840191505092915050565b60006080820190506138f46000830187612eb8565b6139016020830186612eb8565b61390e6040830185612fcc565b818103606083015261392081846138a6565b905095945050505050565b60008151905061393a81612ce2565b92915050565b60006020828403121561395657613955612cac565b5b60006139648482850161392b565b91505092915050565b600081905092915050565b600061398382612d71565b61398d818561396d565b935061399d818560208601612d8d565b80840191505092915050565b60006139b58285613978565b91506139c18284613978565b91508190509392505050565b60008190508160005260206000209050919050565b60006020601f8301049050919050565b600082821b905092915050565b600060088302613a2f7fffffffffffffffffffffffffffffffffffffffffffffffffffffffffffffffff826139f2565b613a3986836139f2565b95508019841693508086168417925050509392505050565b6000819050919050565b6000613a76613a71613a6c84612e23565b613a51565b612e23565b9050919050565b6000819050919050565b613a9083613a5b565b613aa4613a9c82613a7d565b8484546139ff565b825550505050565b600090565b613ab9613aac565b613ac4818484613a87565b505050565b5b81811015613ae857613add600082613ab1565b600181019050613aca565b5050565b601f821115613b2d57613afe816139cd565b613b07846139e2565b81016020851015613b16578190505b613b2a613b22856139e2565b830182613ac9565b50505b505050565b600082821c905092915050565b6000613b5060001984600802613b32565b1980831691505092915050565b6000613b698383613b3f565b9150826002028217905092915050565b613b8282612d71565b67ffffffffffffffff811115613b9b57613b9a6130ec565b5b613ba582546134e6565b613bb0828285613aec565b600060209050601f831160018114613be35760008415613bd1578287015190505b613bdb8582613b5d565b865550613c43565b601f198416613bf1866139cd565b60005b82811015613c1957848901518255600182019150602085019450602081019050613bf4565b86831015613c365784890151613c32601f891682613b3f565b8355505b6001600288020188555050505b505050505050565b7f4e487b7100000000000000000000000000000000000000000000000000000000600052601260045260246000fdfea2646970667358221220040aba3c288db2d0ecb11eac85a6d31bafaaeea42af997bfdef97f341b3c037c64736f6c63430008140033",
  "linkReferences": {},
  "deployedLinkReferences": {}
}